:020000040800F2
:10000000400D002045020008A91A00083716000814
:10001000A51A0008B30B0008CD2E00080000000050
:10002000000000000000000000000000892000081F
:100030004515000800000000AF1E0008A1210008BF
:100040005F0200085F0200085F0200085F0200080C
:100050005F0200085F0200085F0200085F020008FC
:100060005F0200085F0200085F0200085F020008EC
:100070005F0200085F0200085F0200085F020008DC
:100080005F0200085F0200085F0200085F020008CC
:10009000B70B00085F0200085F0200085F0200085B
:1000A0005F0200085F0200085F0200085F020008AC
:1000B0005F0200085F0200085F0200085F0200089C
:1000C0005F0200085F0200085F0200085F0200088C
:1000D0005F0200085F020008B12900085F02000803
:1000E0005F0200085F0200085F0200085F0200086C
:1000F0005F0200085F0200085F0200085F0200085C
:100100005F0200085F0200085F0200085F0200084B
:1001100025280008592800080D220008DD220008C3
:100120005F0200085F0200085F0200085F0200082B
:100130005F0200085F0200085F0200085F0200081B
:100140005F0200085F0200085F0200085F0200080B
:100150005F0200085F0200085F0200085F020008FB
:100160005F0200085F0200085F0200085F020008EB
:100170005F0200085F0200085F0200085F020008DB
:100180005F0200085F02000800F002F800F04AF881
:100190000AA090E8000C82448344AAF10107DA45E2
:1001A00001D100F03FF8AFF2090EBAE80F0013F0EA
:1001B000010F18BFFB1A43F001031847D046000097
:1001C000F0460000103A24BF78C878C1FAD8520728
:1001D00024BF30C830C144BF04680C6070470000C1
:1001E0000023002400250026103A28BF78C1FBD840
:1001F000520728BF30C148BF0B607047642900F028
:100200008980002070471FB503F02FFF00F086FCA7
:1002100004000020002103F0CFFD401C60601FBDE2
:1002200010B510BD00F03EFC1146FFF7ECFF02F0E8
:100230000FFF00F065FC03B4FFF7F2FF03BC00F012
:10024000B1FC00000948804709480047FEE7FEE787
:10025000FEE7FEE7FEE7FEE7FEE7FEE7FEE7FEE776
:1002600004480549054A064B70470000A5210008CF
:100270008901000840070020400D002040090020AF
:10028000400900200FB41CB5074B06AA7B44694601
:100290000090059800F0E5F90020694600F0F4F9B7
:1002A0001CBC5DF814FB0000F90300002DE9F041CF
:1002B0000E460446002020622046E168884730B39D
:1002C000252805D0D4E901219047206A401CF2E797
:1002D000E168204600278847050018D0A5F14100B5
:1002E000192802D820354FF40067324629462046A7
:1002F0002760FFF783FF40B1012804D0F61D26F0E8
:1003000007060836D8E7361DD6E72846DAE7206A1A
:10031000BDE8F0812DE9F0410646002410687529FA
:10032000314616A510D0AFF30080002802DA404213
:1003300013A507E031688A0701D512A502E0490735
:1003400004D511A5012401E0AFF3008000210A22A9
:1003500006F1240709E0B0FBF2FCB0FBF2F302FB6C
:100360001C00303078541846491C0028F3D123462D
:100370002A463046BDE8F04100F015B90000000003
:100380002D0000002B000000200000000FB400B57D
:100390008DB010A9099000910B904FF0FF300A909A
:1003A00000200C90064878440690064878446A4637
:1003B00007900F9909A800F081F90DB05DF814FBC2
:1003C000330300004B0300002DE9FF5F1D464FF093
:1003D000FF3B91464FF000085F46D5E90146A96909
:1003E00001987F1C8847296A824688470028F6D1F1
:1003F000BAF1FF3F0CD0002E24F4C06419DD600672
:1004000014D5BAF12B0F09D0BAF12D0F0ED103E09C
:10041000584604B0BDE8F09F44F48064A96901988F
:100420007F1C8847761E8246002E02DDBAF1300F0F
:1004300003D0B9F1000F26D032E0A969761E0198E9
:100440007F1C44F400748847002E824605DDBAF113
:10045000780F06D0BAF1580F03D0B9F1000F10D0C1
:100460001EE0B9F1000F02D0B9F1100F18D1A9693F
:10047000761E01987F1C24F4007488478246102061
:1004800002E0082000E00A20814609E0A96908FB93
:100490000908761E01987F1C44F400748847824640
:1004A000002E05DD4946504600F0F3F80028EDDA4D
:1004B000E96901988847A00502D46FF00100A8E718
:1004C000E00725D1600613D5600502D5C8F100000C
:1004D00000E0404629680A1D2A600968220501D506
:1004E000087015E0220701D5088011E008600FE0D0
:1004F0002868011D29600068210502D580F8008068
:1005000006E0210702D5A0F8008001E0C0F80080D5
:1005100038467EE710B5431C02E010F8011B71B1AC
:100520008107FAD14FF0013202C88C1A8C4314EAC9
:10053000C211F9D0C01A0A0603D0C01E10BDC01ADD
:1005400010BD0A0401D0801E10BD0902FCD0401E5F
:1005500010BD4FF0000200B5134694469646203970
:1005600022BFA0E80C50A0E80C50B1F12001BFF46C
:10057000F7AF090728BFA0E80C5048BF0CC05DF8D2
:1005800004EB890028BF40F8042B08BF704748BF20
:1005900020F8022B11F0804F18BF00F8012B704794
:1005A0007047704770472DE9F0470D4699469246CF
:1005B000044600F124080168880604D5E06921F0AA
:1005C0001001216000E00120A84201DD471B00E08E
:1005D0000027A1697A1902EB0900081AA0612078A6
:1005E000C00602D42046AFF30080002608E0D4E91C
:1005F00001211AF806009047206A401C761C2062F0
:100600004E45F4DB2078C0060AD52046AFF30080C3
:1006100006E0D4E9012130209047206A401C206286
:10062000381EA7F10107F4DC07E0D4E9012118F82E
:1006300005009047206A401C2062281EA5F1010594
:10064000F3DC2046AFF300802078000602D50220BC
:10065000BDE8F0870120FBE701694A1C02610878C8
:10066000704700B58FB0CDE90131002105910549F2
:100670007944CDE9031011466846FFF717FE0FB025
:1006800000BD0000E5FFFFFF0A6802F8010B0A60E9
:1006900070473A2800D2303820F02002412A01D396
:1006A000A2F13700884201D34FF0FF3070470000BD
:1006B000026811441378016018467047D1600549FB
:1006C0007944516104497944116200211161114654
:1006D00000F02EB8EDFFFFFF53000000426842B16A
:1006E000016811F8013B23B1521EC0E900121846FF
:1006F00070470121C160881E704742685AB1C368C3
:10070000016843B983688B4205D0491E521CC0E979
:100710000012002070474FF0FF30704710B50446BC
:1007200000F0E6F90068005D00F0010010BD000077
:100730002DE9F34F4FF0000A0C4656468DB00120CC
:100740000C9001F10C000B9062690B98012190470D
:10075000051E2DD0252D2CD0216A8847C0B1626995
:100760000B9801219047216A88470028F7D16269D8
:10077000411E0B98904700E0761CA1690D988847B0
:10078000216A88470028F7D1E1690D988847DBE79F
:10079000A1690D988847A842074601D1761CD3E786
:1007A000E1690D9888477F1C02D1BAF1000F6FD024
:1007B0006BE162690B9800273D46394690472A282D
:1007C00004D162690B98012190470125DFF8D0829E
:1007D00062690B9801219047A0F130010A290AD2E1
:1007E0004745E5DC07EB870100EB4107303FDFD4ED
:1007F00045F01005ECE7E90601D46FF000476C28DE
:100800000AD04C2814D0682815D06A280DD0742836
:100810001CD07A281AD01DE062690B9801219047FC
:100820006C2802D045F0040514E045F002050DE007
:1008300045F020050AE062690B980121904768287D
:1008400002D045F0080505E045F4006562690B98A3
:1008500001219047C4E9015765283DD019DC58288B
:100860007AD00CDC452837D004DC252826D0412856
:100870009ED131E046282FD0472899D12CE05B2823
:1008800077D0612828D063287CD0642823D15AE00F
:10089000F6E06F2848D008DC66281DD067281BD0FA
:1008A000692821D06E2816D127E0702845D07328FA
:1008B00068D0752847D078280DD14DE0A1690D98F2
:1008C0008847252805463FF469AFE1690D988847B8
:1008D0006D1C3FF46AAFD8E00D9923466A466FF06D
:1008E0000100AFF30080C5E045F0400023464FF023
:1008F00000026060A80736D43EE0E8077FF447AF07
:100900002068011D21600068290501D506701BE7DC
:10091000290701D5068017E7A90703D5F117C0E914
:10092000006111E706600FE745F0400023464FF0F5
:1009300008026060A80716D41EE040F60E0125EA02
:100940000100606016E045F0400023464FF00A02C7
:100950006060A80707D40FE045F040006060A8077A
:1009600008D5234610220D996FF00100AFF30080E7
:1009700080E007E0102223460D996FF00100FFF799
:1009800023FD77E04FF0000963284F46C8464B46E9
:10099000CB4602D05B2806D038E0E80601D401201F
:1009A000A060012732E06269D4F80CB00B980121F5
:1009B00090475E2807D14FF0010949466269D4F893
:1009C0000CB00B989047216939B900210A4603AB56
:1009D00043F82120491C0829FADBD8B3216949B31F
:1009E00008F1010862690B98012190475D28F4D154
:1009F000B9F1000F09D0002003A951F82020D243FB
:100A000041F82020401C0828F7DB03AB20690028B0
:100A100020794FEA40701ED05B462246CDF8008018
:100A2000CDE901970D9900286FF0010020DAAFF3AE
:100A300000801FE0C11703AA00EBD1614B1121F028
:100A40001F0102EB8302411A13680120884003430F
:100A50001360C7E719E00D99224600286FF00100E6
:100A6000009702DAAFF3008004E0AFF3008001E00A
:100A7000AFF3008000280ADA401C06D10C9820B1A0
:100A80004FF0FF300FB0BDE8F08F5046FAE7E907AE
:100A900001D10AF1010A064400200C9054E600003E
:100AA000CCCCCC0C754600F035F8AE460500694656
:100AB000534620F00700854618B020B5FFF7D0FB5D
:100AC000BDE820404FF000064FF000074FF000084F
:100AD0004FF0000B21F00701AC46ACE8C009ACE8D0
:100AE000C009ACE8C009ACE8C0098D4670470000F9
:100AF00010B500F013F8001D10BD00BFBD3200009E
:100B000010B50446AFF300802046BDE81040FFF763
:100B100092BB000000487047E00600200048704784
:100B2000000700204FF0013C50F8042B51F8043B23
:100B30009A4221D1A2EB0C03934313EACC1317D1B1
:100B400050F8042B51F8043B9A4215D1A2EB0C0348
:100B5000934313EACC130BD150F8042B51F8043B08
:100B60009A4209D1A2EB0C03934313EACC13DBD0D6
:100B70004FF00000704700BFD01A01BAB1FA81F1FE
:100B800001F0180122FA01F0CB40C1F12001DBB2E3
:100B9000C0B2C01A2CFA01F3D11A914311EAC31161
:100BA000E6D1704701491820ABBEFEE726000200DF
:100BB000704700BFFEE710B500F074FA10BD0000EA
:100BC000B1F5007F3AD00FDC202928D006DC0129BE
:100BD0001CD004291DD0082940D11DE0402921D076
:100BE000B1F5807F3AD126E0B1F5004F31D006DC77
:100BF000B1F5806F25D0B1F5006F2FD124E0B1F5AC
:100C0000803F12D0B1F5003F28D111E0154A826033
:100C100025E00822C26022E01022C2601FE0082204
:100C200002611CE01022026119E00822426016E015
:100C30001022426013E00422426010E0042242606D
:100C40000DE0042242600AE0002282610422426038
:100C500005E0002282610422426000E000BF00BF84
:100C6000704700000101010000B58BB0012148066A
:100C700001F042F90121082001F02EF90320029031
:100C800002208DF80C0003208DF80D0000208DF857
:100C90000E0001208DF80F0002A92C4800F053FC33
:100CA00009220021294800F096FC09220121274849
:100CB00000F091FC00208DF826008DF827008DF8BB
:100CC00028008DF829008DF82A008DF82B008DF86A
:100CD00022008DF8230008208DF8240003208DF8D1
:100CE0002500ADF8200008A9194800F050F90020AF
:100CF0008DF81A008DF81B0001208DF81C000020D3
:100D0000ADF81000ADF81200ADF81400ADF8160003
:100D1000ADF8180001208DF81D0004A800F01AF8A5
:100D200014208DF8040001208DF8050000208DF8B6
:100D3000060001208DF8070001A800F0B7FE01228F
:100D40000221034800F01AF90BB000BD000C02406C
:100D50000064004010B50021837A012202FA03F1F9
:100D60003D4A126842F001023B4B1A603A4A1C327B
:100D700012688A43384B1C331A60027BCAB9364A60
:100D80000C3212688A43344B0C331A604288C38891
:100D900042EA0343304A4032847A42F834300288CF
:100DA000838842EA03432C4A4032847A02EBC4022D
:100DB0005360027B012A19D1274A0C3212680A4378
:100DC000254B0C331A604288038842EA0343224AC7
:100DD0004032847A42F83430C288838842EA03433E
:100DE0001D4A4032847A02EBC4025360C27A3AB997
:100DF000194A121D12688A43174B1B1D1A6006E020
:100E0000154A121D12680A43134B1B1D1A600289F2
:100E100032B9114A143212688A430F4B14331A60E4
:100E20000289012A06D10C4A143212680A430A4B7D
:100E300014331A60427B012A06D1074A1C32126819
:100E40000A43054B1C331A60034A126822F0010260
:100E5000014B1A6010BD00000066004070B50446EA
:100E60000D46002660692840002871D0B5F5807FC6
:100E70005CD010DC082D35D006DC012D20D0022DF1
:100E800024D0042D72D127E0102D31D0202D35D063
:100E9000402D6BD138E0B5F5004F60D009DCB5F5D9
:100EA000007F49D0B5F5806F4CD0B5F5006F5DD1AE
:100EB0004FE0B5F5803F2DD0B5F5003F56D12FE07E
:100EC000A0682D4900F0F7FA064651E0E0680321DA
:100ED00000F0F1FA06464BE0E068082100F0EBFA7A
:100EE000064645E0E068102100F0E5FA06463FE0DE
:100EF0002069032100F0DFFA064639E02069082165
:100F000000F0D9FA064633E02069102100F0D3FA48
:100F100006462DE06068082100F0CDFA064627E07D
:100F20006068102100F0C7FA064621E0A06901219F
:100F300000F0C1FA06461BE0A069022100F0BBFAEE
:100F4000064615E0A069042100F0B5FA06460FE058
:100F50000FE0A069702100F0AEFA064608E0606874
:100F6000042100F0A8FA064602E0FFE7002600BFD1
:100F700000E00026304670BD010101001AB143694E
:100F80000B43436102E043698B434361704730B5D3
:100F9000024600200023146824F002041460146840
:100FA00044F00104146000E05B1C546804F0010488
:100FB0001CB94FF6FF74A342F6D1546804F0010443
:100FC0000CB900206CE08C79012C04D1146844F039
:100FD0008004146003E0146824F080041460CC7969
:100FE000012C04D1146844F04004146003E0146838
:100FF00024F0400414600C7A012C04D1146844F0ED
:101000002004146003E0146824F0200414604C7A77
:10101000012C04D1146844F01004146003E0146837
:1010200024F0100414608C7A012C04D1146844F06C
:101030000804146003E0146824F008041460CC7AF7
:10104000012C04D1146844F00404146003E0146813
:1010500024F0040414608C78A407CD7844EA056475
:101060000D7944EA05444D7944EA05540D886D1E16
:101070002C43D461146824F001041460002300E0C0
:101080005B1C546804F001041CB14FF6FF74A342CA
:10109000F6D1546804F001040CB1002000E00120F6
:1010A00030BD000070B586B002217A48FFF7D6FE49
:1010B00000287CD001AA0021764800F0F1F80198C0
:1010C000B0F5007F74D90198B0F5017F70D801990F
:1010D000491EC8B204286CDA9DF810309DF80F50F4
:1010E00043EA05219DF812509DF8113045EA03238B
:1010F0001BB200EE103A9DF814509DF8133045EAEB
:1011000003231BB200EE903A9DF8154001EE101A31
:10111000B8EE411AF6EE001A21EE211A00EB400358
:101120005D4D35F8333001EE903AF8EE611AB6EEC7
:10113000002A02EE211ABCEEC11A11EE103A00EBA1
:101140004005554E26F83530B8EEC01AF6EE001AB6
:1011500021EE211A00EB4003354605EBC303B3F93A
:10116000023001EE903AF8EEE11AB6EE002A02EEF5
:10117000211ABDEEC11A11EE103A1BB200EB400568
:1011800006EBC5056B80B8EEE01AF6EE001A21EE0C
:10119000211A00EB4003354605EBC303B3F90430D5
:1011A00001EE903AF8EEE11AB6EE002A02E06FE0A6
:1011B0006AE068E002EE211ABDEEC11A11EE103AA3
:1011C0001BB200EB400506EBC505AB8000EB40030E
:1011D000354605EBC3039C7100EB400305EBC303ED
:1011E0001B8ACB1A1AB2131E01DB1D4600E05D42BA
:1011F000B5F5805F1CDD002A0DDD00EB4003264DB8
:1012000005EBC3039B685B1E00EB4005224E06EB1B
:10121000C505AB600CE000EB40031F4D05EBC303BD
:101220009B685B1C00EB40051B4E06EBC505AB60E5
:1012300000EB4003184D05EBC303198200EB40039C
:1012400035F8335000EB4003134E06EBC3039B68A5
:1012500005EB433300EB400506EBC505EB6000EB07
:101260004003354605EBC30393ED031AB8EEC11AEC
:10127000DFED0A1A81EE212A00EB400305EBC303E0
:1012800083ED052A00BF00BF02210248FFF798FC4A
:1012900006B070BD00640040C4000020000000469D
:1012A00010B500F5D87303EB01131B6803F00403BA
:1012B0001372137A53B900F5D87303EB01131B684B
:1012C00040F2FF7404EA5353136009E000F5D87349
:1012D00003EB01131B686FF0604404EAD30353600F
:1012E00000F5D87303EB01131B6803F0020353727C
:1012F00000F5D87303EB01135B6803F00F039372DF
:1013000000F5D87303EB01135B681B0AD37400F577
:10131000D87303EB01139B68D37200F5D87303EB0A
:1013200001139B681C0A147300F5D87303EB0113B7
:101330009B681C0C547300F5D87303EB01139B6876
:101340001B0E937300F5D87303EB0113DB68D373A3
:1013500000F5D87303EB0113DB681C0A147400F565
:10136000D87303EB0113DB681C0C547400F5D873BD
:1013700003EB0113DB681B0E937421B9C36843F0C0
:101380002003C36003E0036943F02003036110BD41
:1013900010B502460020936803F08063B3F1806FBC
:1013A00000D110E0936803F00063B3F1006F01D146
:1013B000012008E0936803F08053B3F1805F01D10E
:1013C000022000E00420042874D002F5C07303EB6F
:1013D00000131B6803F0010402F5C07303EB001354
:1013E0001C600B7A7BB94B7A0C8843EA445302F5B4
:1013F000C07404EB00142468234302F5C07404EBAA
:101400000014236010E00B7A4C6843EAC4034C7A62
:10141000234302F5C07404EB00142468234302F54F
:10142000C07404EB001423608B7A03F00F038B72FB
:1014300002F5C07303EB00135B6823F00F0402F5A1
:10144000C07303EB00135C6002F5C07303EB001381
:101450005B688C7A234302F5C07404EB001463606C
:101460008B7B1C064B7B44EA03440B7B44EA03233F
:10147000CC7A234302F5C07404EB0014A3608B7C88
:101480001C064B7C44EA03440B7C44EA0323CC7BDC
:10149000234302F5C07404EB0014E36002F5C0734B
:1014A00003EB00131B6843F0010402F5C07303EB68
:1014B00000131C6010BD0246002002EA01030BB1BC
:1014C000012000E00020704710B54FF4007104487F
:1014D000FFF73FF80020034908800349087010BD5A
:1014E000C40300200C0000200E00002012490A78DE
:1014F0000978491C104B19701049885409785529EE
:1015000003D000211A46117070470B4909780B2946
:1015100000DAF9E709494978532907D10849074A08
:10152000921C13680B6052684A6000BF00BF002124
:10153000014A117000BFE7E789000020E4050020A0
:10154000000000207047F0B50A4600210023002467
:1015500000BF3DE0012505FA01F3156805EA030423
:101560009C4234D105684F000326BE40B543056058
:1015700015794E00B5400668354305601579012D93
:1015800002D01579022D16D185684F000326BE4082
:10159000B543856055794E00B54086683543856012
:1015A000456801268E40B5434560456896798E4072
:1015B000B6B235434560C5684F000326BE40B5430B
:1015C000C560D5794E00B540C6683543C560491C35
:1015D0001029BFD3F0BDF0B5002300244D07ED0E58
:1015E00002FA05F3CE1000F1200555F826504E07FB
:1015F000F70E0F26BE40B543CF1000F1200646F887
:101600002750CE1000F1200555F8265045EA030476
:10161000CE1000F1200545F82640F0BD418370470B
:10162000018370474FF6FF71016000210171417124
:101630008171C171704700BFFEE7000010B5C54859
:10164000006800287ED1DFEDC41A9FEDC41AF1EEC8
:10165000000AB0EE080AC24800F004FCDFEDC11A2F
:101660009FEDC11AF0EE040A9FEDC00AC04800F0D9
:10167000F9FBDFEDBC1A9FEDBC1ADFEDBE0A9FED52
:10168000BB0ABB48203000F0EDFBDFEDB61A9FED42
:10169000B61ADFEDB80A9FEDB50AB548403000F044
:1016A000E1FBDFEDB01A9FEDB01ADFEDB20A9FED5E
:1016B000AF0AAF48603000F0D5FBDFEDAF1A9FED09
:1016C000AF1AF0EE040A9FEDAE0AAE4800F0CAFB76
:1016D000DFEDA91A9FEDA91AF0EE040A9FEDA80A02
:1016E000A848203000F0BEFBDFEDA31A9FEDA31A3F
:1016F000DFEDA50A9FEDA20AA248403000F0B2FB40
:10170000DFED9D1A9FED9D1AF0EE040A9FED9C0AF5
:101710009C48603000F0A6FBDFED921A9FED9B1A0B
:10172000DFED910A9FED9A0A9A4800F09BFBDFEDEE
:101730008D1A9FED961ADFED8C0A9FED950A95485C
:10174000203000E040E000F08DFBDFED861A9FEDD9
:101750008F1ADFED850A9FED8E0A8E48403000F02B
:1017600081FBDFED801A9FED891ADFED7F0A9FED87
:10177000880A8848603000F075FB00241BE07C4933
:1017800001EB4410DFED840A9FED840A00F08AFB30
:101790007C4901EB4410DFED820A9FED820A00F0E4
:1017A00081FB7C4901EB4410DFED7F0A9FED7F0A4E
:1017B00000F078FB641C042CE1DBDFED670A9FED91
:1017C0007C0A674800F06EFB6248006800287DD004
:1017D000DFED611A9FED611AF1EE000AB0EE080A22
:1017E0005F4800F03FFBDFED5F1A9FED5F1ADFED12
:1017F000710A9FED710A5E4800F034FBDFED591A63
:101800009FED591ADFED6B0A9FED6B0A58482030A7
:1018100000F028FBDFED531A9FED531ADFED650A48
:101820009FED650A5248403000F01CFBDFED4D1A79
:101830009FED4D1ADFED5F0A9FED5F0A4C48603067
:1018400000F010FBDFED4C1A9FED4C1AF0EE040A8D
:101850009FED4B0A4B4800F005FBDFED471A9FED6B
:10186000471AF0EE040A9FED460A4648203000F081
:10187000F9FADFED411A9FED411ADFED430A9FEDC2
:10188000400A4048403000F0EDFADFED3B1A9FED92
:101890003B1AF0EE040A9FED3A0A3A48603000F035
:1018A000E1FADFED301A9FED391ADFED2F0A9FEDD7
:1018B000380A384800F0D6FADFED2A1A9FED331ABD
:1018C000DFED290A9FED320A324800E041E0203086
:1018D00000F0C8FADFED231A9FED2C1ADFED220A83
:1018E0009FED2B0A2B48403000F0BCFADFED1D1AAB
:1018F0009FED261ADFED1C0A9FED250A2548603072
:1019000000F0B0FA00241BE0194901EB4410DFEDB0
:10191000220A9FED220A00F0C5FA1A4901EB441091
:10192000DFED210A9FED210A00F0BCFA194901EB15
:101930004410DFED220A9FED220A00F0B3FA641C86
:10194000042CE1DBDFED040A9FED190A044800F0E6
:10195000A9FA10BD740000200000B4436F12833A4E
:101960002401002000007A4400000000000008422A
:1019700044010020333313400000C842A69B443C7E
:101980006666E63FC4010020CDCC2C40E02D103B24
:10199000CDCC8C3F4402002000401C4600401CC6B9
:1019A00000002F4500002FC50080BB450080BBC54F
:1019B0000000B4C39A99A940000080420000FA4593
:1019C0000000FAC510B52DED088BB0EE408AF0EEA0
:1019D000608A38EEC80AB0EE409A19EE100A02F09A
:1019E000D3FA41EC1B0BB0EE4B0AF0EE6B0A01F0A0
:1019F00086FAB0EE40AAF0EE60AA9FED0E0B53EC13
:101A0000102B51EC1A0B02F089FA10D2B5EEC09AE5
:101A1000F1EE10FA06DD9FED090A38EE000ABDEC82
:101A2000088B10BD9FED050A38EE400AF7E7B0EECF
:101A3000680AF4E7000000000070A74000803B4502
:101A4000F0B585B004460D4616461F464FF40070AB
:101A5000009000208DF808008DF8090008208DF80E
:101A60000A00200A8DF80B00E1B28DF80C10290A4B
:101A70008DF80D10E9B28DF80E10310A8DF80F10A7
:101A8000F1B28DF81010390A8DF81110F9B28DF8F5
:101A9000121069460248FFF77BFC05B0F0BD00005C
:101AA0000064004000BFFEE77047000070B50021F1
:101AB00000230F22C4781CB3174C246804F4E0649C
:101AC000C4F5E064C4F30721C1F10404E3B20A41A0
:101AD00044789C40E1B28478144021430C07210EE5
:101AE0000E4C05786155047804F01F050124AC40C4
:101AF00005786D11AD0005F1E025C5F8004109E05C
:101B0000047804F01F050124AC40054D06787611D9
:101B100045F8264070BD00000CED00E000E400E058
:101B200080E100E002490143024A11607047000071
:101B30000000FA050CED00E070B5002415E004F19A
:101B4000B001C8B200F018F9002000F015F910201B
:101B500000F012F9002504E0002000F01BF9681CD9
:101B6000C5B2802DF8DB601CC4B2082CE7DB70BD69
:101B70000EB50121082000F0AFF94FF4F0400190BC
:101B800001208DF8080000208DF80A0002208DF851
:101B9000090000208DF80B0001A93A48FFF7D3FC9B
:101BA0004FF480513748FFF739FD0020009002E0E4
:101BB0000098401C00904CF2503100988842F7D3B6
:101BC0004FF480512F48FFF72BFD0020009002E0DA
:101BD0000098401C00904CF2503100988842F7D396
:101BE000202000F0C9F8102000F0C6F8B02000F066
:101BF000C3F8C82000F0C0F8002000F0BDF81020A5
:101C000000F0BAF8402000F0B7F8812000F0B4F8F6
:101C1000FF2000F0B1F8A12000F0AEF8A62000F0FF
:101C2000ABF8A82000F0A8F83F2000F0A5F8A42009
:101C300000F0A2F8D32000F09FF8002000F09CF8FC
:101C4000D52000F099F8F02000F096F8D92000F0A7
:101C500093F8222000F090F8DA2000F08DF812209E
:101C600000F08AF8DB2000F087F8202000F084F8EC
:101C70008D2000F081F8142000F07EF8AF2000F0F5
:101C80007BF80EBD000C02402DE9F04104460D46E4
:101C90001746A7F1200000F0FF087F2C02DD00248A
:101CA000681CC5B205F1B001C8B200F065F810219A
:101CB00041EA141000F060F804F00F0141F0010057
:101CC00000F05AF8002609E008EB4801054A02EB4B
:101CD0004101885D00F05EF8701CC6B2062EF3DB91
:101CE000BDE8F08174400008FEB504460D46164676
:101CF000324605A16846FEF7C5FA6A4629462046DF
:101D000000F004F8FEBD00002564000070B5054633
:101D10000E4614460CE0227831462846FFF7B4FF01
:101D2000A81DC5B27A2D02DD0025701CC6B2641C48
:101D300020780028EFD170BD70B505460E461446D8
:101D400015E0207800F0800020B1E41C05F10C00C3
:101D5000C5B206E0227831462846FFF795FFA81D58
:101D6000C5B27A2D02DD0025701CC6B2641C207835
:101D70000028E6D170BD000010B504464FF40061A4
:101D80000348FFF74BFC204600F05AF910BD000055
:101D9000000C024010B504464FF400610348FFF701
:101DA0003FFC204600F04CF910BD0000000C024042
:101DB000B0EE401AF0EE601A71EE613AF0EE630A8E
:101DC000D0ED003A63EEA03AB0EE633AD0ED033ABC
:101DD00090ED074AF4EEC43AF1EE10FA04DDD0EDCE
:101DE000073AC0ED033A10E0D0ED033A90ED074A10
:101DF000B1EE444AF4EEC43AF1EE10FA05D2D0ED59
:101E0000073AF1EE633AC0ED033AD0ED013A90EDB6
:101E1000034A23EE842AD0ED023A90ED044A30EED4
:101E2000C44A63EE842AC0ED040A73EE023A33EE2C
:101E3000A20AD0ED063AF4EEC03AF1EE10FA04D25E
:101E4000D0ED063AB0EE630A0AE0D0ED053AF4EEC2
:101E5000C03AF1EE10FA03DDD0ED053AB0EE630AB8
:101E60007047000080ED000AC0ED010A80ED021A03
:101E70009FED092A80ED032A9FED072A80ED042AB1
:101E80009FED062A80ED052A9FED052A80ED062AA2
:101E9000C0ED071A7047000000000000000080C677
:101EA0000000804680ED050AC0ED060A70477047C5
:101EB00010B50748007848B1FFF73EFE054A0021FB
:101EC0000846FFF739FF00200149087010BD0000E7
:101ED0000E000020C403002029B1064A1268024304
:101EE000044B1A6004E0034A12688243014B1A60F3
:101EF000704700003038024029B1064A1268024398
:101F0000044B1A6004E0034A12688243014B1A60D2
:101F1000704700004038024029B1064A1268024367
:101F2000044B1A6004E0034A12688243014B1A60B2
:101F3000704700002038024029B1064A1268024367
:101F4000044B1A6004E0034A12688243014B1A6092
:101F50007047000024380240F0B500210022002420
:101F6000022500260223324F3F6807F00C0121B101
:101F7000042905D0082937D105E02E4F076036E047
:101F80002D4F076033E02A4F3F1F3F68C7F380564D
:101F9000274F3F1F3F6807F03F036EB1264FB7FB47
:101FA000F3F7DFF88CC0ACF1040CDCF800C0CCF324
:101FB000881C07FB0CF40CE01E4FB7FBF3F7DFF8AF
:101FC00070C0ACF1040CDCF800C0CCF3881C07FB3B
:101FD0000CF4174F3F1F3F68C7F301477F1C7D007C
:101FE000B4FBF5F7076002E0124F076000BF00BFC7
:101FF0000F4F3F6807F0F0010909104F7A5C07683E
:10200000D74047600A4F3F6807F4E051890A0B4FF9
:102010007A5C4768D7408760054F3F6807F46041A6
:10202000490B064F7A5C4768D740C760F0BD000097
:10203000083802400024F40000127A008A000020D0
:1020400070B5044600251AE04FF480410D48FFF7B3
:10205000E5FA04F0800028B14FF400510948FFF779
:10206000DFFA04E04FF400510648FFF7D7FA4FF4C7
:1020700080410448FFF7D4FA6006040E6D1C082D59
:10208000E2DB70BD000C0240704700000CB5002080
:10209000019000903448006840F480303249086074
:1020A00000BF3148006800F4003000900198401CE7
:1020B0000190009818B90198B0F5A04FF1D12A48C5
:1020C000006800F4003010B10120009001E0002011
:1020D00000900098012846D123484030006840F025
:1020E00080502149403108602048006840F4404059
:1020F0001E4908601C48083000681B490831086008
:102100000846006840F4004008600846006840F453
:10211000A05008601648091F0860081F006840F0BA
:102120008070091F086000BF0F48006800F0007051
:102130000028F9D040F205700E4908600A480830BE
:10214000006820F00300084908310860084600686C
:1021500040F00200086000BF03480830006800F04B
:102160000C000828F8D10CBD003802400070004077
:1021700008544007003C0240042808D14FF0E021F9
:10218000096941F004014FF0E022116107E04FF0CE
:10219000E021096921F004014FF0E022116170474C
:1021A0007047000010B51548006840F470001349EE
:1021B00008601348006840F00100114908600020E1
:1021C0000F49083108600E4800680E4908400C4964
:1021D00008600D48091D0860081F006820F4802071
:1021E000091F0860002006490C310860FFF74EFF08
:1021F0004FF0006001498039086010BD88ED00E0B3
:1022000000380240FFFFF6FE103000241CB501210B
:10221000124800F0AAFA00B30121104800F096FA23
:102220000F480068401C0E490860FFF741FE0D484A
:102230000D490E4B0E4ACDE900100E490E4801F033
:10224000F9FA074800684FF4FA71B0FBF1F201FBAC
:10225000120010B90120094908701CBD001000408F
:1022600084000020340000204400002040000020B2
:10227000300000202C000020C40300208800002033
:102280007FB505460C4601211020FFF735FE02956B
:10229000ADF804400020ADF80C00ADF8060001A92F
:1022A0000D4800F07DFA012211460B4800F06EFA4D
:1022B0000121094800F04DFA36208DF80000012078
:1022C0008DF8010003208DF8020001208DF8030035
:1022D0006846FFF7EBFB7FBD0010004030B52DEDE9
:1022E0000C8B83B00121F04800F03FFA00287DD02C
:1022F0000121ED4800F02AFA0024EC48B0F904006E
:1023000000EE100AB8EEC00ADFEDE90A80EE201AEE
:102310009FEDE80A21EE000AF0EE408AE64890EDD3
:10232000000A30EE680AB0EE409ADFEDE40AB0EE43
:10233000490AE348FFF73CFDB0EE408AE14890EDE2
:10234000051AF0EE410AE04890ED001AB8EEC11A05
:1023500031EE481AB0EE410ADC48FFF729FDF0EEF5
:10236000409AD84890ED0B1AF0EE410AD64890ED0D
:10237000011AB8EEC11A31EE481AB0EE410AD3483C
:102380002030FFF715FDB0EE40AACE4890ED111AAF
:10239000F0EE410ACC4890ED021AB8EEC11A31EEC7
:1023A000481AB0EE410AC9484030FFF701FDF0EE8F
:1023B00040AAC44890ED171AF0EE410AC24890EDC9
:1023C000031AB8EEC11A31EE481AB0EE410ABF48FE
:1023D0006030FFF7EDFCB0EE40DABB4890ED000A4C
:1023E000B8EEC00AB748D0ED050A00E058E130EE7B
:1023F000600A10EE101A084601F0C6FD41EC1C0BF5
:10240000B0EE4C0AF0EE6C0A00F079FDB0EE40BA86
:10241000F0EE60BA9FEDAE0B53EC102B51EC1B0BA2
:1024200001F0ECFC02D80120AB490860A64890ED11
:10243000010AB8EEC00AA348D0ED0B0A30EE600ADC
:1024400010EE101A084601F09FFD41EC1C0BB0EE97
:102450004C0AF0EE6C0A00F052FDB0EE40BAF0EE1D
:1024600060BA9FED9B0B53EC102B51EC1B0B01F052
:10247000C5FC02D8012099490860934890ED020AF2
:10248000B8EEC00A8F48D0ED110A30EE600A10EEA7
:10249000101A084601F078FD41EC1C0BB0EE4C0A16
:1024A000F0EE6C0A00F02BFDB0EE40BAF0EE60BA30
:1024B0009FED870B53EC102B51EC1B0B01F09EFC96
:1024C00002D80120864908607F4890ED030AB8EEE3
:1024D000C00A7C48D0ED170A30EE600A10EE101AE0
:1024E000084601F051FD41EC1C0BB0EE4C0AF0EE39
:1024F0006C0A00F004FDB0EE40BAF0EE60BA9FED59
:10250000740B53EC102B51EC1B0B01F077FC02D831
:10251000012074490860734800686F4909680844DD
:102520006E49096808446E4909680844002809DDB5
:1025300001206C490860684908606849086068497A
:102540000860012434B100231A4619461846FFF7E3
:1025500077FAA4E05B48B0F9020000EE100AB8EE8A
:10256000C00AF0EE400AB0EE690A5F48FFF720FCAF
:10257000B0EE40BA5348B0F91A0000EE100AB8EEB7
:10258000C00AF0EE400AB0EE4A0A57482030FFF782
:102590000FFCF0EE40BA4B48B0F9320000EE100AE2
:1025A000B8EEC00AF0EE400AB0EE6A0A4E4840307B
:1025B000FFF7FEFBB0EE40CA4248B0F94A0000EE19
:1025C000100AB8EEC00AF0EE400AB0EE4D0A4648D6
:1025D0006030FFF7EDFBF0EE40CA3A48B0F9040076
:1025E00000EE100AB8EEC00AF0EE400AB0EE4B0A58
:1025F0003E48FFF7DDFBBDEEC00A10EE100A00B248
:10260000ADF804002F48B0F91C0000EE100AB8EE37
:10261000C00AF0EE400AB0EE6B0A34482030FFF7F3
:10262000C7FBBDEEC00A10EE100A00B2ADF80600FE
:102630002448B0F9340000EE100AB8EEC00AF0EEFB
:10264000400AB0EE4C0A29484030FFF7B1FBBDEE1E
:10265000C00A10EE100A00B2ADF808001948B0F92F
:102660004C0000EE100AB8EEC00AF0EE400AB0EEE0
:102670006C0A1E486030FFF79BFBBDEEC00A10EEEF
:10268000100A00B2ADF80A00BDF90A30BDF9082001
:10269000BDF90610BDF90400FFF7D2F900BF00BF75
:1026A00003B0BDEC0C8B30BD0014004000000020D6
:1026B00000000047000034435800002000000000E4
:1026C00024010020C4000020B400002044010020A8
:1026D0000000000000002A401C0000202000002014
:1026E0002400002028000020C40100204402002013
:1026F0007FB505460C4601212020FFF7FDFB029522
:10270000ADF804400020ADF80C00ADF8060001A9BA
:102710000D4800F045F8012211460B4800F036F84C
:102720000121094800F015F837208DF8000001203C
:102730008DF8010003208DF8020001208DF80300C0
:102740006846FFF7B3F97FBD00140040CA43028218
:10275000704721B1028842F00102028004E0028841
:102760004FF6FE731A400280704730B502460020D3
:1027700000230024158A05EA0103958905EA01046E
:1027800013B10CB1012000E0002030BD1AB18389E3
:102790000B43838102E083898B4383817047000070
:1027A00000220288184B98420ED0184B98420BD04A
:1027B000B0F1804F08D0164B984205D0154B984287
:1027C00002D0154B984204D14FF68F731A404B88B4
:1027D0001A43124B984207D0114B984204D04FF63F
:1027E000FF431A400B891A4302804B68C3620B886F
:1027F0000385054B984202D0044B984201D18B7A55
:1028000003860123838270470000014000040140D9
:102810000004004000080040000C00400010004090
:102820000014004010B540F225510A4800F05DFA4E
:1028300050B10849091D0988C8B2FEF757FE40F299
:102840002551044800F0B1F94FF45871014800F0E7
:10285000ACF910BD004C004010B540F225511948AC
:1028600000F043FA60B3174800F0F8FAC4B20D2C38
:1028700005D140F22551134800F097F910BD1248D8
:102880000088B0F5FF7F06DC0F490888411C0E4A1E
:1028900011800E490C540A2C04D00B480088B0F566
:1028A000FF7F07DD00210948074A12888154012073
:1028B0000749087040F22551024800F076F900BF40
:1028C00000BFDBE7005000400C000020C4030020E4
:1028D0000E0000201FB5044601214804FFF70CFB41
:1028E000144800F07DF9684600F0C1FA0094002019
:1028F000ADF80400ADF80600ADF808000C20ADF806
:102900000A000020ADF80C0069460A4800F03CFAC5
:1029100000F078F82021074800F03EF9012240F24B
:102920002551044800F00BFA0121024800F04CF94F
:102930001FBD0000004400401CB501210846FFF700
:10294000CBFA072202211948FEF745FE0722032190
:102950001648FEF740FE6846FEF764FE042000902D
:1029600002208DF8040003208DF8050000208DF86A
:10297000060001208DF8070069460C48FEF7E3FDCC
:102980006846FEF74FFE0820009002208DF80400F4
:1029900003208DF8050000208DF8060001208DF839
:1029A000070069460148FEF7CEFD1CBD000002404D
:1029B00010B540F22551104800F097F9D0B10E48FB
:1029C00000F04CFAC4B20D480088FF280EDA0B491B
:1029D0000888411C094A118009490C540A2C08D165
:1029E0000020128888540549088002E0002003492D
:1029F000088000BF10BD0000004400400A00002015
:102A0000C402002008B526208DF8000000208DF8B3
:102A100001008DF8020001208DF803006846FFF7E1
:102A200045F808BD10B588B0044601210420FFF721
:102A300053FA0121C804FFF75FFA4FF44060069093
:102A400002208DF81C008DF81D0000208DF81E005E
:102A500001208DF81F0006A91B48FEF774FD08220F
:102A60000A211948FEF7B7FD08220B211648FEF788
:102A7000B2FD02940020ADF80C00ADF80E00ADF8E8
:102A80001000ADF814000C20ADF8120002A90F4898
:102A900000F07AF901210D4800F096F834208DF805
:102AA000040000208DF805008DF8060001208DF847
:102AB000070001A8FEF7FAFF012240F22551034862
:102AC00000F03DF908B010BD00080240004C004085
:102AD00000B587B001210420FFF7FEF9012108208D
:102AE000FFF7FAF901210805FFF706FA4FF48050C5
:102AF000059002208DF818008DF8190000208DF83F
:102B00001A0001208DF81B0005A92048FEF71BFDC7
:102B10000420059005A91E48FEF715FD08220C218A
:102B20001A48FEF758FD082202211948FEF753FD06
:102B30004FF4165001900020ADF80800ADF80A00DF
:102B4000ADF80C000C20ADF80E000020ADF8100020
:102B500001A9104800F018F935208DF80000002078
:102B60008DF801008DF8020001208DF80300684601
:102B7000FEF79CFF012240F22551064800F0DFF8E5
:102B80000121044800F020F807B000BD0008024011
:102B9000000C02400050004001F40072B2F5007FCA
:102BA00000D100BFCA430280704710B50022002345
:102BB00040F66A14A14200D100BF0A1201249440D9
:102BC000A3B2DC43048010BD21B1828942F40052DB
:102BD000828104E082894DF6FF731A40828170473A
:102BE00010B504463248844208D101211020FFF775
:102BF000A3F900211020FFF79FF957E02D488442E8
:102C000009D101214804FFF787F900214FF4003072
:102C1000FFF782F94AE02848844209D1012188045B
:102C2000FFF77AF900214FF48020FFF775F93DE0B6
:102C30002248844209D10121C804FFF76DF900211F
:102C40004FF40020FFF768F930E01D48844209D1B5
:102C500001210805FFF760F900214FF48010FFF70C
:102C60005BF923E01748844208D101212020FFF7B7
:102C700063F900212020FFF75FF917E01248844232
:102C800009D101218807FFF747F900214FF0804063
:102C9000FFF742F90AE00D48844207D101214005BF
:102CA000FFF73AF900216005FFF736F910BD000083
:102CB000001001400044004000480040004C00402B
:102CC000005000400014014000780040007C0040AB
:102CD00002460020B1F5007F00D100BF13880B40F1
:102CE0000BB1012000E00020704770B502460024BF
:102CF00000230025002040F66A16B14200D100BF33
:102D0000C1F3421501F01F03012606FA03F3012D5A
:102D100002D19689334006E0022D02D1168A334053
:102D200001E0968A33400C12012606FA04F4168854
:102D3000344013B10CB1012000E0002070BDF0B5AB
:102D40000346002400260025002040F66A17B942F9
:102D500000D100BF1846C1F3421401F01F0601273D
:102D600007FA06F5012C01D10C3004E0022C01D148
:102D7000103000E014301AB107682F43076002E0FA
:102D80000768AF430760F0BD2DE9FF4705460E46D3
:102D90000024A14600BFA046B08900B100BF2C8A24
:102DA00024F44054F08804432C82AC8941F20C6036
:102DB0008443B08831890843718908430443AC8156
:102DC000AC8A24F44074B0890443AC826846FFF7AF
:102DD000C3F82048854202D01F48854202D1DDF861
:102DE0000C9001E0DDF80890A88900F4004040B1A3
:102DF00009EBC90000EB091031684900B0FBF1F79D
:102E000007E009EBC90000EB091031688900B0FB4D
:102E1000F1F76420B7FBF0F004012009642101FB05
:102E20001078A88900F4004040B1322000EBC800BF
:102E3000B0FBF1F000F00700044308E0322000EBA3
:102E400008106421B0FBF1F000F00F0004432C8166
:102E5000BDE8FF870010014000140140014688884A
:102E6000C0F308007047C1F30802828070474FF436
:102E70001651016000218180C18001810C214181B6
:102E8000002181817047000010B5FEF755FE0C4807
:102E9000022102680020FEF727FF0A48022102688B
:102EA0001820FEF721FF0848062102680020FEF7DF
:102EB0001BFF0448062102681820FEF715FF10BD0D
:102EC00038000020300000202C00002000BFFEE76A
:102ED0002DE9F04107460D46164600240BE0295D1A
:102EE0003846FFF7C0FF00BF80213846FFF7F0FEED
:102EF0000028F9D0641CB442F1D3BDE8F0812DED77
:102F0000020B019820F0004001909DED000B02B0F3
:102F10007047000010B5044604B910BD6FF00400FE
:102F2000FFF72AF9E11704EB5171C910054A116046
:102F3000104600684FF47A7148430349086000BFA7
:102F4000EBE700009C000020A000002070B50446C4
:102F50004FF4FA70B4FBF0F5B4FBF0F100FB11464E
:102F600003E0074800F00EF86D1E002DF9D12EB1D8
:102F70004FF47A7106FB01F000F004F870BD000018
:102F800020A107000146114A12684A434FF0E0238E
:102F90005A6100229A611A46126942F001021A61CE
:102FA00000BF4FF0E022106900F001021AB100F4F6
:102FB0008032002AF5D04FF0E022126922F001029F
:102FC0004FF0E0231A6100229A6170479C000020B4
:102FD00010B54FF47A7240F64A41012000F0EEFB42
:102FE0003220FFF7B3FF4FF47A7240F61F510220F0
:102FF00000F0E4FB4FF4FA70FFF7A8FF4FF47A7289
:1030000040F27551032000F0D9FB4FF4FA70FFF73E
:103010009DFF4FF47A7240F6E661042000F0CEFB8B
:103020004FF4FA70FFF792FF4FF47A7240F6C451F2
:10303000052000F0C3FB4FF47A70FFF787FF4FF4D1
:103040007A7240F68A01062000F0B8FB10BD00003D
:10305000FFF7A8F8FEF78CFDFEF76EFDA820FFF73E
:1030600059FF40F247316320FFF70AF940F2473138
:103070006320FFF73DFBFEF7E1FAFDF7F5FD0122C6
:103080000221FE48FDF77AFF142001218140420908
:10309000920002F1E022C2F8001100BF0020F849BE
:1030A00008604FF4E130FFF7BDFCFFF711FD4FF46E
:1030B0004070FEF737FDFFF73FFC4FF4E130FFF7BC
:1030C00009FCA820FFF726FF4FF47A70FFF73EFFB8
:1030D000FFF77EFF5DE3EB48007820B1FFF7D4FEF9
:1030E0000020E84908704FF49670FFF72FFF002387
:1030F0001A462821184600F00DFD01E0FFF7C4FE36
:10310000E14800680128F9D1E04800680128F5D1BC
:10311000DF4800680128F1D1DE4800680128EDD1C0
:103120004FF49670FFF712FF9FEDDB0ADB4880ED4E
:10313000000A00231A4614216FF04F0000F0EAFC49
:1031400001E0FFF7A1FED04800680128F9D1CF487F
:1031500000680128F5D1CE4800680128F1D1CD489A
:1031600000680128EDD130E0CD48006840F2E73139
:1031700088422AD0CB480068884226D0C8480068D8
:103180000A2190FBF1F201FB1200C7490860C44814
:1031900000680968401A0A2190FBF1F090FBF1F2F7
:1031A00001FB1200C1490860BD480068BE490968BA
:1031B000401ABE49096801EB8101A0EB410064217E
:1031C00090FBF1F0BA49086000E0CDE700BFFEF7E0
:1031D0007BF940F6B830FFF7B9FE9FEDB60AAF486D
:1031E00080ED000A00231A4623216FF0B80000F09A
:1031F00091FC0120B04908600020B0490860B04946
:103200000860B0490860FEF719FA01E0FFF73CFEDC
:103210009D4800680128F9D19C4800680128F5D133
:103220009B4800680128F1D19A4800680128EDD137
:103230004FF49670FFF78AFE00F042FD41F28830AD
:10324000FFF784FE0125002498E09F480068962837
:10325000FADC9E4800689628F6DC01209C4908604C
:10326000FEF7ECF99B4800681E2190FBF1F09649AF
:103270000860964A126802F12301934A1268A2F18B
:10328000B90000231A4600F045FC01E0FFF7FCFD01
:103290007D4800680128F9D17C4800680128F5D1F3
:1032A0007B4800680128F1D17A4800680128EDD1F7
:1032B00089480068142190FBF1F0844908600A46AF
:1032C000126802F12301804A1268A2F1B9000023BA
:1032D0001A4600F01FFC01E0FFF7D6FD6A480068BF
:1032E0000128F9D1694800680128F5D168480068CB
:1032F0000128F1D1674800680128EDD177480068BE
:1033000042F20771884209D074480068491C88421B
:1033100004D072480068491C88422FD129E06F48C8
:10332000006842F20771884207D100F028FB00F0E4
:10333000C7FC641C0020694908606848006842F2C4
:103340000871884207D100F00CFB00F0B9FC641C46
:103350000020624908606148006842F209718842B1
:1033600007D100F0F0FA00F0ABFC641C00205B49D0
:103370000860032CD3DBFFF72BFE10E057480068F2
:1033800042F2077188427FF460AF54480068491CDC
:103390008842F8D151480068491C8842F3D100BFE7
:1033A00000204B490860FEF749F99FED4D0A3B4864
:1033B00080ED000A4FF47A70FFF7C8FD00231A462B
:1033C00014216FF04F0000F0A5FB00203A4908607F
:1033D0003A49086001203A490860002039490860EC
:1033E000FEF72CF901E0FFF74FFD274800680128A0
:1033F000F9D1264800680128F5D125480068012840
:10340000F1D1244800680128EDD14FF47A70FFF71C
:103410009DFD00231A4696216FF0590000F07AFBBB
:1034200000202549086025490860012024490860DA
:10343000002024490860FEF701F901E0FFF724FDB0
:10344000114800680128F9D1104800680128F5D119
:103450000F4800680128F1D10E4800680128EDD11D
:103460004FF47A70FFF772FD00231A46E6216FF0E1
:103470004F0000F04FFB00200F4933E00064004094
:1034800018000020880000201C00002020000020E0
:1034900024000020280000200000404258000020A6
:1034A0004000002044000020780000207C00002024
:1034B0008000002000003C426800002064000020E2
:1034C0006C00002070000020380000203C0000202C
:1034D000740000202C000020300000203400002068
:1034E0000000344208600120AA4908600020AA496F
:1034F0000860AA490860FEF7A1F801E0FFF7C4FCE4
:10350000A74800680128F9D1A64800680128F5D12C
:10351000A54800680128F1D1A44800680128EDD130
:103520004FF47A70FFF712FD00F006FC00231A46F4
:1035300064216FF0590000F0EDFA00209C4908600A
:10354000012094490860002093490860934908606D
:10355000FEF774F801E0FFF797FC91480068012836
:10356000F9D1904800680128F5D18F4800680128FA
:10357000F1D18E4800680128EDD14FF47A70FFF741
:10358000E5FC00231A4678216FF0D10000F0C2FA62
:103590000020874908607F4908607F490860012052
:1035A0007E490860FEF74AF801E0FFF76DFC7C48B1
:1035B00000680128F9D17B4800680128F5D17A48D4
:1035C00000680128F1D1794800680128EDD14FF455
:1035D0007A70FFF7BBFC00231A4678216FF0590080
:1035E00000F098FA0020724908606A4908606A4948
:1035F0000860012069490860FEF720F801E0FFF744
:1036000043FC674800680128F9D166480068012832
:10361000F5D1654800680128F1D1644800680128A7
:10362000EDD14FF49670FFF791FC00231A467821F4
:10363000192000F06FFA00205D49086055490860C4
:1036400055490860012055490860FDF7F7FF01E082
:10365000FFF71AFC524800680128F9D15148006868
:103660000128F5D1504800680128F1D14F48006881
:103670000128EDD14FF49670FFF768FC00231A463D
:103680006FF00E01184600F045FA00204849086026
:103690004049086040490860012040490860FDF742
:1036A000CDFF01E0FFF7F0FB3D4800680128F9D1AC
:1036B0003C4800680128F5D13B4800680128F1D159
:1036C0003A4800680128EDD14FF49670FFF73EFCB0
:1036D0009FED380A384880ED000A00231A466FF043
:1036E0000E01184600F016FA0020314908602949F9
:1036F000086029490860012028490860FDF79EFFFD
:1037000001E0FFF7C1FB264800680128F9D12548F0
:1037100000680128F5D1244800680128F1D1234828
:1037200000680128EDD14FF49670FFF70FFC9FED74
:10373000210A214880ED000A00231A466FF00E018D
:103740000F2000F0E7F900201949086011490860CE
:1037500011490860012011490860FDF76FFF03E07F
:1037600001E0FFF791FBFCE70D4800680128F7D165
:103770000C4800680128F3D10B4800680128EFD1FC
:103780000A4800680128EBD14FF49670FFF7DEFB82
:1037900000BFA0E4640000206C0000207000002046
:1037A0001C00002020000020240000202800002011
:1037B0006800002000000000580000202DE9F05FA4
:1037C00007460D46164619488770002405F0FF0885
:1037D000FF2095FBF0F000F0FF0A144880F8068007
:1037E00080F807A006F0FF09FF2096FBF0F000F03C
:1037F000FF0B0E4880F80A9080F80BB0022004E01E
:103800000A49095C2144CCB2401C0C28F8DBFF2C8F
:1038100000DDE4B2E043C4B2044804730D22014663
:103820000348FFF755FBBDE8F09F0000A40000200F
:10383000004400402DE9F04704460E4617469846DE
:10384000DDE9089A2046FCF765FE05462078412808
:1038500012D160785A280FD1A81E205C5A280BD1AB
:10386000681E205C412807D13B46324619A12046FC
:10387000FCF78CFDFDF728FE2078422812D16078F5
:103880005A280FD1A81E205C5A280BD1681E205C34
:10389000422807D14B46424611A12046FCF776FD4F
:1038A000FDF712FE2078432811D160785A280ED1F6
:1038B000A81E205C5A280AD1681E205C432806D125
:1038C00052460AA12046FCF761FDFDF7FDFDBDE86B
:1038D000F0870000415A25642B25645A41000000FE
:1038E000425A25642B25645A42000000435A25643D
:1038F0005A43000010B54FF47A7240F22E71032043
:10390000FFF75CFFC820FFF721FB4FF47A7240F20B
:1039100009310420FFF752FF4FF47A70FFF716FBCE
:103920004FF47A7240F289610320FFF747FF4FF4AA
:103930009670FFF70BFB4FF47A7240F61C4106209D
:10394000FFF73CFF10BD10B54FF4FA70FFF7FEFA19
:10395000FFF7D0FF4FF4AF60FFF7F8FA00F01DF863
:1039600010BD10B54FF4FA70FFF7F0FAFFF7C2FF81
:103970004FF4AF60FFF7EAFA00F04EF810BD10B553
:103980004FF4FA70FFF7E2FAFFF7B4FF4FF4AF60BD
:10399000FFF7DCFA00F07FF810BD10B54FF47A7233
:1039A00040F622610420FFF709FF3220FFF7CEFA2C
:1039B0004FF47A7240F62B410120FFF7FFFE4FF4DF
:1039C000FA70FFF7C3FA4FF47A7240F2D661022020
:1039D000FFF7F4FE4FF4FA70FFF7B8FA4FF47A727B
:1039E00040F2A9510320FFF7E9FE4FF4FA70FFF708
:1039F000ADFA4FF47A7240F603210520FFF7DEFEA0
:103A00004FF4E160FFF7A2FA4FF47A7240F62C31DE
:103A10000620FFF7D3FE10BD10B54FF47A7240F6C2
:103A200022610420FFF7CAFE3220FFF78FFA4FF41D
:103A30007A7240F62B410120FFF7C0FE4FF4FA7076
:103A4000FFF784FA4FF47A7240F644010220FFF740
:103A5000B5FE4FF4FA70FFF779FA4FF47A724FF42B
:103A6000BC610320FFF7AAFE4FF4FA70FFF76EFA6D
:103A70004FF47A7240F671210520FFF79FFE4FF454
:103A8000FA60FFF763FA4FF47A7240F62C310620A1
:103A9000FFF794FE10BD10B54FF47A7240F6226124
:103AA0000420FFF78BFE3220FFF750FA4FF47A72B2
:103AB00040F62B410120FFF781FE4FF4FA70FFF72B
:103AC00045FA4FF47A7240F6A2110220FFF776FE13
:103AD0004FF4FA70FFF73AFA4FF47A7240F2A951B4
:103AE0000320FFF76BFE4FF4FA70FFF72FFA4FF445
:103AF0007A7240F603210520FFF760FE4FF4E16083
:103B0000FFF724FA4FF47A7240F62C310620FFF7C3
:103B100055FE10BD2DE9F0412DED048B04460D46F8
:103B200016461F4600205B4908605B4908605B49F8
:103B300008605B4908605B4804605B4805605B485F
:103B400006605B48076057480068574909680844A1
:103B500056490968564A126801FB020000EE100A35
:103B6000B8EEC00AB0EE408A4E48006840424E4966
:103B70000968401A4D4909684D4A126801FB020064
:103B800000EE100AB8EEC00AF0EE408A4548006820
:103B900045490968401A45490968454A126801FBC8
:103BA000120000EE100AB8EEC00AB0EE409A3D488E
:103BB000006840423C49096808443C4909683C4A5D
:103BC000126801FB120000EE100AB8EEC00AF0EE17
:103BD000409A3848D0ED000AB0EE600AF0EE480A8C
:103BE000FDF7F0FEBDEEC00A334880ED010A314812
:103BF000D0ED010AB0EE600AF0EE680AFDF7E2FED1
:103C0000BDEEC00A2C4880ED020A2A48D0ED020A17
:103C1000B0EE600AF0EE490AFDF7D4FEBDEEC00A30
:103C2000254880ED000A2348D0ED030AB0EE600A73
:103C3000F0EE690AFDF7C6FEBDEEC00A1E4880ED33
:103C4000030A90ED010AB8EEC00A1A4880ED000A96
:103C5000194890ED020AB8EEC00A164880ED010A34
:103C6000154890ED000AB8EEC00A124880ED020A2D
:103C7000114890ED030AB8EEC00A0E4880ED030A21
:103C80000E480068401C0D490860BDEC048BBDE87F
:103C9000F08100001C0000202000002024000020F3
:103CA00028000020480000204C0000205000002088
:103CB00054000020D4050020B40000206000002043
:103CC00010B54FF47A724FF4D9610420FFF776FDF6
:103CD0003220FFF73BF94FF47A7240F62B41012076
:103CE000FFF76CFD3220FFF731F94FF47A7240F2A2
:103CF000F1710220FFF762FD6420FFF727F94FF40E
:103D00007A7240F229610320FFF758FD4FF4967054
:103D1000FFF71CF94FF47A7240F661010520FFF7B6
:103D20004DFD6420FFF712F94FF47A7240F68A01D4
:103D30000620FFF743FD10BD10B54FF47A724FF423
:103D400000610420FFF73AFD3220FFF7FFF84FF43F
:103D50007A7240F229410120FFF730FD4FF4FA70EA
:103D6000FFF7F4F84FF47A7240F634010220FFF7BF
:103D700025FD4FF47A70FFF7E9F84FF47A7240F2BC
:103D80006C510320FFF71AFD4FF4FA70FFF7DEF8CD
:103D90004FF47A7240F65E010520FFF70FFD4FF4F5
:103DA0007A70FFF7D3F84FF47A7240F68A01062052
:103DB000FFF704FD10BD000010B500290AD00878F7
:103DC000002807D005487844FCF7ACFE002801D055
:103DD000002010BD0248784410BD0000E60A000033
:103DE000DE0A0000491058BFC1F140415B1058BFC6
:103DF000C3F140438B42EFF30080704751EA030C5C
:103E000017D41CF5801F58BFBCF5801F00F1068039
:103E1000994218BF704708BF9042704707D711F505
:103E2000801F58BF13F5801F19D4994270478942EB
:103E300070471CF5801F08D5BCF5801FF7D58B4255
:103E400018BF704708BF824270474FF4001C1CEB3C
:103E5000410F38BF1CEB430F01D28B42704770B546
:103E600000F008F8922449004FF000514FF08053C1
:103E7000FFF7B8BF0EF1020E2EF0030E5EF8046BD2
:103E8000364205D4012A43EB030515F5001F12D86D
:103E9000012841EB010C1CF5001F0CD80ED14FEA94
:103EA000D17C15F5001F0CEB4C0C0CF1020C08BF7B
:103EB0004CEBD37C04E04FF0080C01E04FEAD37CDC
:103EC0000CEB4C0526FA05F606F00706B6F1040CD5
:103ED00006D20EEB860CBDE870404CF0010C60473A
:103EE000DFE80CF0090B02024FF000414FF0000038
:103EF000A1F5002170BD19461046012851EB0104BF
:103F000018BFD4F5001484BF002001F0004170BD3B
:103F10000808A0F500114FEA3101704753EA010C7F
:103F200017D41CF5801F58BFBCF5801F00F1068018
:103F30008B4218BF704708BF8242704707D713F5FE
:103F4000801F58BF11F5801F19D48B4270479B42C8
:103F500070471CF5801F08D5BCF5801FF7D5994226
:103F600018BF704708BF904270474FF4001C1CEB0D
:103F7000430F38BF1CEB410F01D2994270470FB479
:103F80000CBC03BCFFF76BBF43004FEAD30C4FEAF6
:103F90003C0C43401FBF40070CF1605113F0FE4F33
:103FA00070471CF0006F03D100200CF000417047F7
:103FB0000CF0004343EA507010B540EACC0000F02A
:103FC0000EF800BF000000924FEA0001FFF7A0BF0B
:103FD0004FF000414FF00000A1F5002170470EF1B5
:103FE000020E2EF0030E5EF8044B244204D44FEA76
:103FF0004102B2F17F4F11D84FEA4003B3F17F4F36
:104000000CD80ED14FEAD07CB2F17F4F0CEB4C0CA8
:104010000CF1020C08BF4CEBD17C04E04FF0080C13
:1040200001E04FEAD17C0CEB4C0324FA03F404F0DA
:104030000704B4F1040C06D20EEB840CBDE810406A
:104040004CF0010C6047DFE80CF0070802024FF06B
:104050000040A0F5800010BD0846420018BFD2F114
:10406000807288BF00F0004010BD4FF04070E1EE5C
:10407000100A70470000000000000000002F000040
:1040800000000700070000147F147F1400242A7F1B
:104090002A1200626408132300364955225000009A
:1040A0000503000000001C224100000041221C000A
:1040B0000014083E08140008083E0808000000A08C
:1040C0006000000808080808000060600000002088
:1040D00010080402003E5149453E0000427F400066
:1040E000004261514946002141454B3100181412EC
:1040F0007F10002745454539003C4A4949300001B9
:104100007109050300364949493600064949291E07
:104110000000363600000000563600000008142269
:104120004100001414141414000041221408000269
:104130000151090600324959513E007C1211127C8E
:10414000007F49494936003E41414122007F4141BB
:10415000221C007F49494941007F09090901003EAD
:104160004149497A007F0808087F0000417F4100EB
:10417000002040413F01007F08142241007F404061
:104180004040007F020C027F007F0408107F003E49
:104190004141413E007F09090906003E4151215E2F
:1041A000007F091929460046494949310001017F2C
:1041B0000101003F4040403F001F2040201F003FC2
:1041C0004038403F00631408146300070870080774
:1041D00000615149454300007F41410000552A5587
:1041E0002A55000041417F00000402010204004002
:1041F0004040404000000102040000205454547824
:10420000007F484444380038444444200038444443
:10421000487F00385454541800087E0901020018E1
:10422000A4A4A47C007F080404780000447D40001E
:10423000004080847D00007F102844000000417F02
:104240004000007C04180478007C080404780038DE
:104250004444443800FC242424180018242418FC66
:10426000007C0804040800485454542000043F44CF
:104270004020003C4040207C001C2040201C003C92
:104280004030403C004428102844001CA0A0A07CE2
:10429000004464544C44141414141414000000001A
:1042A000000000000000000000000000000000F816
:1042B00000000000000000333000000000100C0679
:1042C000100C0600000000000000000040C0784014
:1042D000C0784000043F04043F040400007088FCE0
:1042E00008300000001820FF211E0000F008F00038
:1042F000E018000000211C031E211E0000F00888A9
:10430000700000001E2123241927211010160E0012
:10431000000000000000000000000000000000E0BD
:1043200018040200000000071820400000020418D2
:10433000E00000000040201807000000404080F02E
:10434000804040000202010F01020200000000F064
:10435000000000000101011F010101000000000038
:104360000000000080B070000000000000000000AD
:104370000000000000010101010101010000000036
:1043800000000000003030000000000000000000CD
:1043900080601804006018060100000000E01008AA
:1043A0000810E000000F102020100F00001010F87F
:1043B000000000000020203F2020000000700808BE
:1043C000088870000030282422213000003008883E
:1043D000884830000018202020110E000000C02066
:1043E00010F8000000070424243F240000F8088887
:1043F000880808000019212020110E0000E0108814
:1044000088180000000F112020110E000038080845
:10441000C83808000000003F000000000070880855
:1044200008887000001C222121221C0000E01008D6
:104430000810E0000000312222110F00000000C02F
:10444000C0000000000000303000000000000080CC
:1044500000000000000080600000000000008040BC
:1044600020100800000102040810200040404040D5
:104470004040400004040404040404000008102028
:10448000408000000020100804020100007048086D
:104490000808F0000000003036010000C030C828D5
:1044A000E810E0000718272423140B000000C03890
:1044B000E0000000203C23020227382008F888880A
:1044C00088700000203F202020110E00C030080816
:1044D00008083800071820202010080008F80808ED
:1044E0000810E000203F202020100F0008F88888E6
:1044F000E8081000203F20202320180008F88888B2
:10450000E8081000203F200003000000C030080829
:104510000838000007182020221E020008F80800B2
:104520000008F808203F210101213F20000808F879
:10453000080800000020203F20200000000008089C
:10454000F8080800C08080807F00000008F888C05C
:1045500028180800203F20012638200008F808000D
:1045600000000000203F20202020300008F8F80044
:10457000F8F80800203F003F003F200008F830C056
:104580000008F808203F200007183F00E010080846
:104590000810E0000F10202020100F0008F8080875
:1045A0000808F000203F210101010000E010080888
:1045B0000810E0000F18242438504F0008F88888AD
:1045C00088887000203F2000030C3020007088088D
:1045D000080838000038202121221C00180808F89B
:1045E000080818000000203F2000000008F808001C
:1045F0000008F808001F202020201F0008788800ED
:1046000000C83808000007380E010000F80800F85C
:104610000008F800033C0700073C03000818688006
:104620008068180820302C03032C30200838C8007C
:10463000C83808000000203F2000000010080808CB
:10464000C83808002038262120201800000000FE6D
:10465000020202000000007F40404000000C30C019
:1046600000000000000000010638C0000002020245
:10467000FE000000004040407F00000000000402F7
:104680000202040000000000000000000000000022
:104690000000000080808080808080800002020412
:1046A000000000000000000000000000000080800A
:1046B000808000000019242222223F2008F8008078
:1046C00080000000003F112020110E00000000803B
:1046D00080800000000E11202020110000000080CA
:1046E0008088F800000E112020103F2000008080FC
:1046F00080800000001F222222221300008080F010
:10470000888888180020203F20200000000080803A
:1047100080808000006B94949493600008F800807F
:1047200080800000203F210000203F2000809898DA
:10473000000000000020203F20200000000000803A
:104740009898000000C08080807F000008F800007A
:1047500080808000203F24022D302000000808F8CF
:10476000000000000020203F20200000808080808A
:1047700080808000203F20003F20003F808000801C
:1047800080800000203F210000203F20000080802A
:1047900080800000001F202020201F0080800080DB
:1047A0008000000080FFA12020110E00000000808A
:1047B00080808000000E112020A0FF80808080007B
:1047C0008080800020203F212000010000008080A8
:1047D000808080000033242424241900008080E09D
:1047E000808000000000001F20200000808000006A
:1047F00000808000001F202020103F20808080004B
:104800000080808000010E3008060100808000805A
:10481000008080800F300C030C300F00008080007F
:10482000808080000020312E0E31200080808000AA
:104830000080808080818E7018060100008080805A
:10484000808080000021302C2221300000000000F8
:10485000807C020200000000003F40400000000099
:10486000FF00000000000000FF0000000002027CCA
:10487000800000000040403F0000000000060101F1
:10488000020204040000000000000000BC4900080F
:1048900000000020B4000000C4010008704A0008B5
:1048A000B40000208C0C0000E001000810010000A2
:1048B00043000000F8FFFFFF004040404040404000
:1048C00040404141414141404040404040404040E3
:1048D0004040404040404040400502020202020287
:1048E00002020202020202020220202020202020D6
:1048F00020202002020202020202909090909090EA
:1049000010101010101010101010101010101010A7
:10491000101010100202020202028888888888881B
:104920000808080808080808080808080808080807
:10493000080808080202020240000000000000000F
:104940000000000000000000000000000000000067
:104950000000000000000000000000000000000057
:104960000000000000000000000000000000000047
:104970000000000000000000000000000000000037
:104980000000000000000000000000000000000027
:104990000000000000000000000000000000000017
:1049A0000000000000000000000000000000000007
:1049B00000000000000000000000000000000000F7
:1049C0000000000000FF00000000000000000000E8
:1049D00000000000000000000000000000000000D7
:1049E00000000000000000000000000000000000C7
:1049F000000000000000000000000000E7030000CD
:104A0000E7030000000000000000000000000000BC
:104A10000000000000000000010000000100000094
:104A20000000000000000000000000000000000086
:104A30000000000000000000000000000000000076
:104A40000000000000000000000001020304010259
:104A50000304060708090000000000000000000031
:104A6000FFFF0009032A0000000000000000000012
:040000050800018965
:00000001FF
