:020000040800F2
:10000000A00E0020450200085D1E000865160008CD
:10001000591E0008B30B00088533000800000000DB
:100020000000000000000000000000003D24000867
:10003000451500080000000063220008552500084F
:100040005F0200085F0200085F0200085F0200080C
:100050005F0200085F0200085F0200085F020008FC
:100060005F0200085F0200085F0200085F020008EC
:100070005F0200085F0200085F0200085F020008DC
:100080005F0200085F0200085F0200085F020008CC
:10009000B70B00085F0200085F0200085F0200085B
:1000A0005F0200085F0200085F0200085F020008AC
:1000B0005F0200085F0200085F0200085F0200089C
:1000C0005F0200085F0200085F0200085F0200088C
:1000D0005F0200085F020008692E00085F02000846
:1000E0005F0200085F0200085F0200085F0200086C
:1000F0005F0200085F0200085F0200085F0200085C
:100100005F0200085F0200085F0200085F0200084B
:10011000A12C0008D52C0008C1250008E126000804
:100120005F0200085F0200085F0200085F0200082B
:100130005F0200085F0200085F0200085F0200081B
:100140005F0200085F0200085F0200085F0200080B
:100150005F0200085F0200085F0200085F020008FB
:100160005F0200085F0200085F0200085F020008EB
:100170005F0200085F0200085F0200085F020008DB
:100180005F0200085F02000800F002F800F04AF881
:100190000AA090E8000C82448344AAF10107DA45E2
:1001A00001D100F03FF8AFF2090EBAE80F0013F0EA
:1001B000010F18BFFB1A43F0010318473058000025
:1001C00050580000103A24BF78C878C1FAD85207B6
:1001D00024BF30C830C144BF04680C6070470000C1
:1001E0000023002400250026103A28BF78C1FBD840
:1001F000520728BF30C148BF0B607047642900F028
:100200008980002070471FB504F0DFFF00F086FCF6
:1002100004000020002104F07FFE401C60601FBD30
:1002200010B510BD00F03EFC1146FFF7ECFF03F0E7
:100230006BF900F065FC03B4FFF7F2FF03BC00F0BC
:10024000B1FC00000948804709480047FEE7FEE787
:10025000FEE7FEE7FEE7FEE7FEE7FEE7FEE7FEE776
:1002600004480549054A064B704700005925000817
:1002700089010008A0080020A00E0020A00A00208C
:10028000A00A00200FB41CB5074B06AA7B446946A0
:100290000090059800F0E5F90020694600F0F4F9B7
:1002A0001CBC5DF814FB0000F90300002DE9F041CF
:1002B0000E460446002020622046E168884730B39D
:1002C000252805D0D4E901219047206A401CF2E797
:1002D000E168204600278847050018D0A5F14100B5
:1002E000192802D820354FF40067324629462046A7
:1002F0002760FFF783FF40B1012804D0F61D26F0E8
:1003000007060836D8E7361DD6E72846DAE7206A1A
:10031000BDE8F0812DE9F0410646002410687529FA
:10032000314616A510D0AFF30080002802DA404213
:1003300013A507E031688A0701D512A502E0490735
:1003400004D511A5012401E0AFF3008000210A22A9
:1003500006F1240709E0B0FBF2FCB0FBF2F302FB6C
:100360001C00303078541846491C0028F3D123462D
:100370002A463046BDE8F04100F015B90000000003
:100380002D0000002B000000200000000FB400B57D
:100390008DB010A9099000910B904FF0FF300A909A
:1003A00000200C90064878440690064878446A4637
:1003B00007900F9909A800F081F90DB05DF814FBC2
:1003C000330300004B0300002DE9FF5F1D464FF093
:1003D000FF3B91464FF000085F46D5E90146A96909
:1003E00001987F1C8847296A824688470028F6D1F1
:1003F000BAF1FF3F0CD0002E24F4C06419DD600672
:1004000014D5BAF12B0F09D0BAF12D0F0ED103E09C
:10041000584604B0BDE8F09F44F48064A96901988F
:100420007F1C8847761E8246002E02DDBAF1300F0F
:1004300003D0B9F1000F26D032E0A969761E0198E9
:100440007F1C44F400748847002E824605DDBAF113
:10045000780F06D0BAF1580F03D0B9F1000F10D0C1
:100460001EE0B9F1000F02D0B9F1100F18D1A9693F
:10047000761E01987F1C24F4007488478246102061
:1004800002E0082000E00A20814609E0A96908FB93
:100490000908761E01987F1C44F400748847824640
:1004A000002E05DD4946504600F0F3F80028EDDA4D
:1004B000E96901988847A00502D46FF00100A8E718
:1004C000E00725D1600613D5600502D5C8F100000C
:1004D00000E0404629680A1D2A600968220501D506
:1004E000087015E0220701D5088011E008600FE0D0
:1004F0002868011D29600068210502D580F8008068
:1005000006E0210702D5A0F8008001E0C0F80080D5
:1005100038467EE710B5431C02E010F8011B71B1AC
:100520008107FAD14FF0013202C88C1A8C4314EAC9
:10053000C211F9D0C01A0A0603D0C01E10BDC01ADD
:1005400010BD0A0401D0801E10BD0902FCD0401E5F
:1005500010BD4FF0000200B5134694469646203970
:1005600022BFA0E80C50A0E80C50B1F12001BFF46C
:10057000F7AF090728BFA0E80C5048BF0CC05DF8D2
:1005800004EB890028BF40F8042B08BF704748BF20
:1005900020F8022B11F0804F18BF00F8012B704794
:1005A0007047704770472DE9F0470D4699469246CF
:1005B000044600F124080168880604D5E06921F0AA
:1005C0001001216000E00120A84201DD471B00E08E
:1005D0000027A1697A1902EB0900081AA0612078A6
:1005E000C00602D42046AFF30080002608E0D4E91C
:1005F00001211AF806009047206A401C761C2062F0
:100600004E45F4DB2078C0060AD52046AFF30080C3
:1006100006E0D4E9012130209047206A401C206286
:10062000381EA7F10107F4DC07E0D4E9012118F82E
:1006300005009047206A401C2062281EA5F1010594
:10064000F3DC2046AFF300802078000602D50220BC
:10065000BDE8F0870120FBE701694A1C02610878C8
:10066000704700B58FB0CDE90131002105910549F2
:100670007944CDE9031011466846FFF717FE0FB025
:1006800000BD0000E5FFFFFF0A6802F8010B0A60E9
:1006900070473A2800D2303820F02002412A01D396
:1006A000A2F13700884201D34FF0FF3070470000BD
:1006B000026811441378016018467047D1600549FB
:1006C0007944516104497944116200211161114654
:1006D00000F02EB8EDFFFFFF53000000426842B16A
:1006E000016811F8013B23B1521EC0E900121846FF
:1006F00070470121C160881E704742685AB1C368C3
:10070000016843B983688B4205D0491E521CC0E979
:100710000012002070474FF0FF30704710B50446BC
:1007200000F0E6F90068005D00F0010010BD000077
:100730002DE9F34F4FF0000A0C4656468DB00120CC
:100740000C9001F10C000B9062690B98012190470D
:10075000051E2DD0252D2CD0216A8847C0B1626995
:100760000B9801219047216A88470028F7D16269D8
:10077000411E0B98904700E0761CA1690D988847B0
:10078000216A88470028F7D1E1690D988847DBE79F
:10079000A1690D988847A842074601D1761CD3E786
:1007A000E1690D9888477F1C02D1BAF1000F6FD024
:1007B0006BE162690B9800273D46394690472A282D
:1007C00004D162690B98012190470125DFF8D0829E
:1007D00062690B9801219047A0F130010A290AD2E1
:1007E0004745E5DC07EB870100EB4107303FDFD4ED
:1007F00045F01005ECE7E90601D46FF000476C28DE
:100800000AD04C2814D0682815D06A280DD0742836
:100810001CD07A281AD01DE062690B9801219047FC
:100820006C2802D045F0040514E045F002050DE007
:1008300045F020050AE062690B980121904768287D
:1008400002D045F0080505E045F4006562690B98A3
:1008500001219047C4E9015765283DD019DC58288B
:100860007AD00CDC452837D004DC252826D0412856
:100870009ED131E046282FD0472899D12CE05B2823
:1008800077D0612828D063287CD0642823D15AE00F
:10089000F6E06F2848D008DC66281DD067281BD0FA
:1008A000692821D06E2816D127E0702845D07328FA
:1008B00068D0752847D078280DD14DE0A1690D98F2
:1008C0008847252805463FF469AFE1690D988847B8
:1008D0006D1C3FF46AAFD8E00D9923466A466FF06D
:1008E0000100AFF30080C5E045F0400023464FF023
:1008F00000026060A80736D43EE0E8077FF447AF07
:100900002068011D21600068290501D506701BE7DC
:10091000290701D5068017E7A90703D5F117C0E914
:10092000006111E706600FE745F0400023464FF0F5
:1009300008026060A80716D41EE040F60E0125EA02
:100940000100606016E045F0400023464FF00A02C7
:100950006060A80707D40FE045F040006060A8077A
:1009600008D5234610220D996FF00100AFF30080E7
:1009700080E007E0102223460D996FF00100FFF799
:1009800023FD77E04FF0000963284F46C8464B46E9
:10099000CB4602D05B2806D038E0E80601D401201F
:1009A000A060012732E06269D4F80CB00B980121F5
:1009B00090475E2807D14FF0010949466269D4F893
:1009C0000CB00B989047216939B900210A4603AB56
:1009D00043F82120491C0829FADBD8B3216949B31F
:1009E00008F1010862690B98012190475D28F4D154
:1009F000B9F1000F09D0002003A951F82020D243FB
:100A000041F82020401C0828F7DB03AB20690028B0
:100A100020794FEA40701ED05B462246CDF8008018
:100A2000CDE901970D9900286FF0010020DAAFF3AE
:100A300000801FE0C11703AA00EBD1614B1121F028
:100A40001F0102EB8302411A13680120884003430F
:100A50001360C7E719E00D99224600286FF00100E6
:100A6000009702DAAFF3008004E0AFF3008001E00A
:100A7000AFF3008000280ADA401C06D10C9820B1A0
:100A80004FF0FF300FB0BDE8F08F5046FAE7E907AE
:100A900001D10AF1010A064400200C9054E600003E
:100AA000CCCCCC0C754600F035F8AE460500694656
:100AB000534620F00700854618B020B5FFF7D0FB5D
:100AC000BDE820404FF000064FF000074FF000084F
:100AD0004FF0000B21F00701AC46ACE8C009ACE8D0
:100AE000C009ACE8C009ACE8C0098D4670470000F9
:100AF00010B500F013F8001D10BD00BF1D4400002C
:100B000010B50446AFF300802046BDE81040FFF763
:100B100092BB000000487047400800200048704722
:100B2000600800204FF0013C50F8042B51F8043BC2
:100B30009A4221D1A2EB0C03934313EACC1317D1B1
:100B400050F8042B51F8043B9A4215D1A2EB0C0348
:100B5000934313EACC130BD150F8042B51F8043B08
:100B60009A4209D1A2EB0C03934313EACC13DBD0D6
:100B70004FF00000704700BFD01A01BAB1FA81F1FE
:100B800001F0180122FA01F0CB40C1F12001DBB2E3
:100B9000C0B2C01A2CFA01F3D11A914311EAC31161
:100BA000E6D1704701491820ABBEFEE726000200DF
:100BB000704700BFFEE710B500F074FA10BD0000EA
:100BC000B1F5007F3AD00FDC202928D006DC0129BE
:100BD0001CD004291DD0082940D11DE0402921D076
:100BE000B1F5807F3AD126E0B1F5004F31D006DC77
:100BF000B1F5806F25D0B1F5006F2FD124E0B1F5AC
:100C0000803F12D0B1F5003F28D111E0154A826033
:100C100025E00822C26022E01022C2601FE0082204
:100C200002611CE01022026119E00822426016E015
:100C30001022426013E00422426010E0042242606D
:100C40000DE0042242600AE0002282610422426038
:100C500005E0002282610422426000E000BF00BF84
:100C6000704700000101010000B58BB0012148066A
:100C700001F01CFB0121082001F008FB0320029079
:100C800002208DF80C0003208DF80D0000208DF857
:100C90000E0001208DF80F0002A92C4800F06AFC1C
:100CA00009220021294800F0ADFC09220121274832
:100CB00000F0A8FC00208DF826008DF827008DF8A4
:100CC00028008DF829008DF82A008DF82B008DF86A
:100CD00022008DF8230008208DF8240003208DF8D1
:100CE0002500ADF8200008A9194800F050F90020AF
:100CF0008DF81A008DF81B0001208DF81C000020D3
:100D0000ADF81000ADF81200ADF81400ADF8160003
:100D1000ADF8180001208DF81D0004A800F01AF8A5
:100D200014208DF8040001208DF8050000208DF8B6
:100D3000060001208DF8070001A801F091F80122BA
:100D40000221034800F01AF90BB000BD000C02406C
:100D50000064004010B50021837A012202FA03F1F9
:100D60003D4A126842F001023B4B1A603A4A1C327B
:100D700012688A43384B1C331A60027BCAB9364A60
:100D80000C3212688A43344B0C331A604288C38891
:100D900042EA0343304A4032847A42F834300288CF
:100DA000838842EA03432C4A4032847A02EBC4022D
:100DB0005360027B012A19D1274A0C3212680A4378
:100DC000254B0C331A604288038842EA0343224AC7
:100DD0004032847A42F83430C288838842EA03433E
:100DE0001D4A4032847A02EBC4025360C27A3AB997
:100DF000194A121D12688A43174B1B1D1A6006E020
:100E0000154A121D12680A43134B1B1D1A600289F2
:100E100032B9114A143212688A430F4B14331A60E4
:100E20000289012A06D10C4A143212680A430A4B7D
:100E300014331A60427B012A06D1074A1C32126819
:100E40000A43054B1C331A60034A126822F0010260
:100E5000014B1A6010BD00000066004070B50446EA
:100E60000D46002660692840002871D0B5F5807FC6
:100E70005CD010DC082D35D006DC012D20D0022DF1
:100E800024D0042D72D127E0102D31D0202D35D063
:100E9000402D6BD138E0B5F5004F60D009DCB5F5D9
:100EA000007F49D0B5F5806F4CD0B5F5006F5DD1AE
:100EB0004FE0B5F5803F2DD0B5F5003F56D12FE07E
:100EC000A0682D4900F0F7FA064651E0E0680321DA
:100ED00000F0F1FA06464BE0E068082100F0EBFA7A
:100EE000064645E0E068102100F0E5FA06463FE0DE
:100EF0002069032100F0DFFA064639E02069082165
:100F000000F0D9FA064633E02069102100F0D3FA48
:100F100006462DE06068082100F0CDFA064627E07D
:100F20006068102100F0C7FA064621E0A06901219F
:100F300000F0C1FA06461BE0A069022100F0BBFAEE
:100F4000064615E0A069042100F0B5FA06460FE058
:100F50000FE0A069702100F0AEFA064608E0606874
:100F6000042100F0A8FA064602E0FFE7002600BFD1
:100F700000E00026304670BD010101001AB143694E
:100F80000B43436102E043698B434361704730B5D3
:100F9000024600200023146824F002041460146840
:100FA00044F00104146000E05B1C546804F0010488
:100FB0001CB94FF6FF74A342F6D1546804F0010443
:100FC0000CB900206CE08C79012C04D1146844F039
:100FD0008004146003E0146824F080041460CC7969
:100FE000012C04D1146844F04004146003E0146838
:100FF00024F0400414600C7A012C04D1146844F0ED
:101000002004146003E0146824F0200414604C7A77
:10101000012C04D1146844F01004146003E0146837
:1010200024F0100414608C7A012C04D1146844F06C
:101030000804146003E0146824F008041460CC7AF7
:10104000012C04D1146844F00404146003E0146813
:1010500024F0040414608C78A407CD7844EA056475
:101060000D7944EA05444D7944EA05540D886D1E16
:101070002C43D461146824F001041460002300E0C0
:101080005B1C546804F001041CB14FF6FF74A342CA
:10109000F6D1546804F001040CB1002000E00120F6
:1010A00030BD000070B586B002217A48FFF7D6FE49
:1010B00000287CD001AA0021764800F0F1F80198C0
:1010C000B0F5007F74D90198B0F5017F70D801990F
:1010D000491EC8B204286CDA9DF810309DF80F50F4
:1010E00043EA05219DF812509DF8113045EA03238B
:1010F0001BB200EE103A9DF814509DF8133045EAEB
:1011000003231BB200EE903A9DF8154001EE101A31
:10111000B8EE411AF6EE001A21EE211A00EB400358
:101120005D4D35F8333001EE903AF8EE611AB6EEC7
:10113000002A02EE211ABCEEC11A11EE103A00EBA1
:101140004005554E26F83530B8EEC01AF6EE001AB6
:1011500021EE211A00EB4003354605EBC303B3F93A
:10116000023001EE903AF8EEE11AB6EE002A02EEF5
:10117000211ABDEEC11A11EE103A1BB200EB400568
:1011800006EBC5056B80B8EEE01AF6EE001A21EE0C
:10119000211A00EB4003354605EBC303B3F90430D5
:1011A00001EE903AF8EEE11AB6EE002A02E06FE0A6
:1011B0006AE068E002EE211ABDEEC11A11EE103AA3
:1011C0001BB200EB400506EBC505AB8000EB40030E
:1011D000354605EBC3039C7100EB400305EBC303ED
:1011E0001B8ACB1A1AB2131E01DB1D4600E05D42BA
:1011F000B5F5805F1CDD002A0DDD00EB4003264DB8
:1012000005EBC3039B685B1E00EB4005224E06EB1B
:10121000C505AB600CE000EB40031F4D05EBC303BD
:101220009B685B1C00EB40051B4E06EBC505AB60E5
:1012300000EB4003184D05EBC303198200EB40039C
:1012400035F8335000EB4003134E06EBC3039B68A5
:1012500005EB433300EB400506EBC505EB6000EB07
:101260004003354605EBC30393ED031AB8EEC11AEC
:10127000DFED0A1A81EE212A00EB400305EBC303E0
:1012800083ED052A00BF00BF02210248FFF798FC4A
:1012900006B070BD00640040D4000020000000468D
:1012A00010B500F5D87303EB01131B6803F00403BA
:1012B0001372137A53B900F5D87303EB01131B684B
:1012C00040F2FF7404EA5353136009E000F5D87349
:1012D00003EB01131B686FF0604404EAD30353600F
:1012E00000F5D87303EB01131B6803F0020353727C
:1012F00000F5D87303EB01135B6803F00F039372DF
:1013000000F5D87303EB01135B681B0AD37400F577
:10131000D87303EB01139B68D37200F5D87303EB0A
:1013200001139B681C0A147300F5D87303EB0113B7
:101330009B681C0C547300F5D87303EB01139B6876
:101340001B0E937300F5D87303EB0113DB68D373A3
:1013500000F5D87303EB0113DB681C0A147400F565
:10136000D87303EB0113DB681C0C547400F5D873BD
:1013700003EB0113DB681B0E937421B9C36843F0C0
:101380002003C36003E0036943F02003036110BD41
:1013900010B502460020936803F08063B3F1806FBC
:1013A00000D110E0936803F00063B3F1006F01D146
:1013B000012008E0936803F08053B3F1805F01D10E
:1013C000022000E00420042874D002F5C07303EB6F
:1013D00000131B6803F0010402F5C07303EB001354
:1013E0001C600B7A7BB94B7A0C8843EA445302F5B4
:1013F000C07404EB00142468234302F5C07404EBAA
:101400000014236010E00B7A4C6843EAC4034C7A62
:10141000234302F5C07404EB00142468234302F54F
:10142000C07404EB001423608B7A03F00F038B72FB
:1014300002F5C07303EB00135B6823F00F0402F5A1
:10144000C07303EB00135C6002F5C07303EB001381
:101450005B688C7A234302F5C07404EB001463606C
:101460008B7B1C064B7B44EA03440B7B44EA03233F
:10147000CC7A234302F5C07404EB0014A3608B7C88
:101480001C064B7C44EA03440B7C44EA0323CC7BDC
:10149000234302F5C07404EB0014E36002F5C0734B
:1014A00003EB00131B6843F0010402F5C07303EB68
:1014B00000131C6010BD0246002002EA01030BB1BC
:1014C000012000E00020704710B54FF4007104487F
:1014D000FFF73FF80020034908800349087010BD5A
:1014E000D40300200C0000200E00002012490A78CE
:1014F0000978491C104B19701049885409785529EE
:1015000003D000211A46117070470B4909780B2946
:1015100000DAF9E709494978532907D10849074A08
:10152000921C13680B6052684A6000BF00BF002124
:10153000014A117000BFE7E799000020F405002080
:10154000000000207047000080ED000AC0ED010A95
:1015500080ED021ADFED062AC0ED032ADFED042A32
:10156000C0ED042AC0ED051A80ED062A7047000080
:1015700000000000F0B50A4600210023002400BF4F
:101580003DE0012505FA01F3156805EA03049C42D4
:1015900034D105684F000326BE40B5430560157978
:1015A0004E00B5400668354305601579012D02D01F
:1015B0001579022D16D185684F000326BE40B5432C
:1015C000856055794E00B54086683543856045682D
:1015D00001268E40B5434560456896798E40B6B287
:1015E00035434560C5684F000326BE40B543C5601E
:1015F000D5794E00B540C6683543C560491C1029F1
:10160000BFD3F0BDF0B5002300244D07ED0E02FA64
:1016100005F3CE1000F1200555F826504E07F70EC1
:101620000F26BE40B543CF1000F1200646F82750E4
:10163000CE1000F1200555F8265045EA0304CE10DF
:1016400000F1200545F82640F0BD41837047018335
:1016500070474FF6FF710160002101714171817186
:10166000C171704700BFFEE710B5FE480068002852
:101670007DD1DFEDFD1A9FEDFD1AF1EE000AB0EE0F
:10168000080AFB4800F0C8FDDFEDFA1A9FEDFA1AD0
:10169000DFEDFA0A9FEDFA0AFA4800F0BDFDDFED32
:1016A000F51A9FEDF51AF0EE040A9FEDF50AF548DC
:1016B000203000F0B1FDDFEDEF1A9FEDEF1ADFED06
:1016C000EF0A9FEDEF0AEF48403000F0A5FDDFED97
:1016D000E91A9FEDE91AF0EE040A9FEDE90AE948DC
:1016E000603000F099FDE8480068C0B9DFEDE11A0C
:1016F0009FEDE01ADFEDE50AB0EE000AE148803028
:1017000000F08AFDDFEDDB1A9FEDDA1ADFEDDF0A6C
:10171000B0EE000ADB48A03000F07EFD1BE0DA48A6
:101720000068012817D1DFEDD31A9FEDD31ADFED42
:10173000D80AB1EE000AD348803000F06DFDDFED2D
:10174000CD1A9FEDCD1ADFEDD20AB1EE000ACD48D9
:10175000A03000F061FDDFEDCF1A9FEDCF1AF0EE63
:10176000040A9FEDCE0ACE4800F056FD00E079E075
:10177000DFEDC81A9FEDC81AF0EE040A9FEDC70A04
:10178000C748203000F048FDDFEDC21A9FEDC21AB5
:10179000F0EE040A9FEDC10AC148403000F03CFD64
:1017A000DFEDBC1A9FEDBC1AF0EE040A9FEDBB0AF8
:1017B000BB48603000F030FDDFEDAE1A9FEDB91A86
:1017C000DFEDAD0A9FEDB80AB84800F025FDDFED6A
:1017D000A91A9FEDB41ADFEDA80A9FEDB30AB3482A
:1017E000203000F019FDDFEDA31A9FEDAE1ADFEDFA
:1017F000A20A9FEDAD0AAD48403000F00DFDDFEDCF
:101800009D1A9FEDA81ADFED9C0A9FEDA70AA74835
:10181000603000F001FD00241BE09A4901EB441008
:10182000DFEDA30A9FEDA30A00F016FD9C4901EB32
:101830004410DFEDA10A9FEDA10A00F00DFD9B49C8
:1018400001EB4410DFED9E0A9FED9E0A00F004FDBF
:10185000641C042CE1DBDFED840A9FED9B0A8448C5
:1018600000F0FAFC7F48006800287DD0DFED7E1A8A
:101870009FED7E1AF1EE040AB1EE000A7C4800F0FA
:10188000CBFCDFED7C1A9FED7C1ADFED7C0A9FED2F
:101890007C0A7C4800F0C0FCDFED761A9FED761ADA
:1018A000F0EE040A9FED760A7648203000F0B4FC92
:1018B000DFED701A9FED701ADFED700A9FED700A70
:1018C0007048403000F0A8FCDFED6A1A9FED6A1AFC
:1018D000F0EE040A9FED6A0A6A48603000F09CFC52
:1018E00069480068C0B9DFED631A9FED631ADFED48
:1018F000770AB3EE020A6348803000F08DFCDFED1A
:101900005D1A9FED5D1ADFED710AB3EE020A5D48C4
:10191000A03000F081FC1BE05B480068012817D173
:10192000DFED541A9FED541ADFED690A9FED690A45
:101930005448803000F070FCDFED4E1A9FED4E1AD7
:10194000DFED650A9FED630A4E48A03000F064FCAD
:10195000DFED501A9FED501AF0EE040A9FED4F0A8A
:101960004F4800F059FC00E0CCE0DFED4A1A9FED53
:101970004A1AF0EE040A9FED490A4948203000F067
:101980004BFCDFED441A9FED441AF0EE040A9FED84
:10199000430A4348403000F03FFCDFED3E1A9FED24
:1019A0003E1AF0EE040A9FED3D0A3D48603000F01B
:1019B00033FCDFED301A9FED3B1ADFED2F0A9FED70
:1019C0003A0A3A4800F028FCDFED2A1A9FED351A52
:1019D000DFED290A9FED340A3448203000F01CFC6A
:1019E000DFED241A9FED2F1ADFED230A9FED2E0A5B
:1019F0002E48403000F010FCDFED1E1A9FED291A32
:101A0000DFED1D0A9FED280A2848603000F004FC35
:101A100000246EE01C48006848B91A4901EB4410E4
:101A2000F3EE090ABBEE090A00F016FC0CE01648BA
:101A30000068012808D1134901EB4410DFED270AA3
:101A40009FED270A00F008FC154901EB4410DFED7B
:101A50001A0A9FED1A0A00F0FFFB144901EB44102B
:101A600040E00000740000200000B4436F12833A8D
:101A70003401002000007A4400000000333333407A
:101A800000000C4254010020840000200AD7A33D2E
:101A90009A99D93F0000C842A69B443C6666E63F3F
:101AA000D4010020E02D103BCDCC8C3F540200200F
:101AB00000409C4500409CC50000FA440000FAC468
:101AC0000080BB450080BBC50000B4C33333333F47
:101AD000CDCC6C40000020429A99894000004843D8
:101AE000000048C35FED0A0A1FED0A0A00F0B4FBCC
:101AF000641C042C8EDB5FED240A1FED0D0A644884
:101B000000F0AAFB6348006802287DD15FED2A1A25
:101B10001FED2A1AF1EE000AB0EE080A5C4800F048
:101B20007BFB5FED2C1A1FED2C1ADFED5B0AB3EE89
:101B3000040A5A4800F070FB5FED321A1FED321AAA
:101B4000DFED550AB3EE040A5448203000F064FB80
:101B50005FED381A1FED381ADFED4F0AB3EE040AB5
:101B60004E48403000F058FB5FED3E1A1FED3E1A24
:101B7000DFED490AB3EE040A4848603000F04CFB40
:101B80005FED3C1A1FED3C1AF2EE050AB2EE040AB4
:101B9000434800F041FB5FED411A1FED411AF2EEA0
:101BA000050AB2EE040A3E48203000F035FB5FED36
:101BB000471A1FED471AF2EE050AB2EE040A38483A
:101BC000403000F029FB5FED4D1A1FED4D1AF2EE8B
:101BD000050AB2EE040A3248603000F01DFBDFED6A
:101BE000311A1FED501AF0EE000A9FED2F0A2F4810
:101BF00000F012FBDFED2B1A1FED561AF0EE000A73
:101C00009FED290A294800E041E0203000F004FB64
:101C1000DFED241A1FED5D1AF0EE000A9FED220A97
:101C20002248403000F0F8FA5FED6E1A1FED631A9B
:101C3000F0EE000A9FED1C0A1C48603000F0ECFA40
:101C400000241BE0154901EB4410DFED160A9FED5F
:101C5000180A00F001FB124901EB44105FED6C0A19
:101C60001FED6C0A00F0F8FA104901EB4410DFEDAB
:101C7000110A9FED110A00F0EFFA641C042CE1DB5D
:101C80005FED870A1FED700A014800F0E5FA10BD0C
:101C900034010020740000206666A6415401002033
:101CA000D40100200050C34766664640540200201D
:101CB0000050C3C700401C4600401CC610B500249D
:101CC0003DE0C4EBC40101EB41011E4A02EB81007F
:101CD0009FED1D2ADFED1D1A9FED1D1ADFED1D0A78
:101CE000B7EE080AFFF730FCC4EBC40101EB410179
:101CF000144A02EB810101F11C009FED172ADFED70
:101D0000171A9FED171ADFED120A9FED160AFFF75B
:101D10001BFCC4EBC40101EB41010A4A02EB810147
:101D200001F138009FED102ADFED101A9FED101A17
:101D3000DFED100AB6EE000AFFF706FC641C042C67
:101D4000BFDB10BDF006002000409C4500409CC554
:101D5000CDCC4C3DCDCCCC3D00007A4400007AC4C3
:101D60000AD7A33C6666663F00803B4500803BC5C2
:101D70000AD7A33B0AD7233C10B52DED088BB0EE54
:101D8000408AF0EE608A38EEC80AB0EE409A19EE4A
:101D9000100A03F0A9F941EC1B0BB0EE4B0AF0EE70
:101DA0006B0A01F008FBB0EE40AAF0EE60AA9FEDCE
:101DB0000E0B53EC102B51EC1A0B03F05FF910D201
:101DC000B5EEC09AF1EE10FA06DD9FED090A38EE85
:101DD000000ABDEC088B10BD9FED050A38EE400AE5
:101DE000F7E7B0EE680AF4E7000000000070A740D3
:101DF00000803B45F0B585B004460D4616461F46AB
:101E00004FF40070009000208DF808008DF8090054
:101E100008208DF80A00200A8DF80B00E1B28DF839
:101E20000C10290A8DF80D10E9B28DF80E10310A48
:101E30008DF80F10F1B28DF81010390A8DF81110CD
:101E4000F9B28DF8121069460248FFF7A1FA05B001
:101E5000F0BD00000064004000BFFEE770470000D6
:101E600070B5002100230F22C4781CB3174C2468DE
:101E700004F4E064C4F5E064C4F30721C1F1040490
:101E8000E3B20A4144789C40E1B284781440214393
:101E90000C07210E0E4C05786155047804F01F05DF
:101EA0000124AC4005786D11AD0005F1E025C5F8C1
:101EB000004109E0047804F01F050124AC40054D01
:101EC0000678761145F8264070BD00000CED00E064
:101ED00000E400E080E100E002490143024A1160B1
:101EE000704700000000FA050CED00E070B500241A
:101EF00015E004F1B001C8B200F018F9002000F0BC
:101F000015F9102000F012F9002504E0002000F07F
:101F10001BF9681CC5B2802DF8DB601CC4B2082C0C
:101F2000E7DB70BD0EB50121082000F0AFF94FF4DA
:101F3000F040019001208DF8080000208DF80A0083
:101F400002208DF8090000208DF80B0001A93A4805
:101F5000FFF710FB4FF480513748FFF776FB002066
:101F6000009002E00098401C00904CF25031009824
:101F70008842F7D34FF480512F48FFF768FB0020C9
:101F8000009002E00098401C00904CF25031009804
:101F90008842F7D3202000F0C9F8102000F0C6F8DE
:101FA000B02000F0C3F8C82000F0C0F8002000F016
:101FB000BDF8102000F0BAF8402000F0B7F88120FA
:101FC00000F0B4F8FF2000F0B1F8A12000F0AEF866
:101FD000A62000F0ABF8A82000F0A8F83F2000F001
:101FE000A5F8A42000F0A2F8D32000F09FF800206C
:101FF00000F09CF8D52000F099F8F02000F096F859
:10200000D92000F093F8222000F090F8DA2000F0B8
:102010008DF8122000F08AF8DB2000F087F82020ED
:1020200000F084F88D2000F081F8142000F07EF894
:10203000AF2000F07BF80EBD000C02402DE9F0410E
:1020400004460D461746A7F1200000F0FF087F2C3C
:1020500002DD0024681CC5B205F1B001C8B200F071
:1020600065F8102141EA141000F060F804F00F0147
:1020700041F0010000F05AF8002609E008EB4801A1
:10208000054A02EB4101885D00F05EF8701CC6B2A3
:10209000062EF3DBBDE8F081D4510008FEB50446FE
:1020A0000D461646324605A16846FEF7EBF86A462D
:1020B0002946204600F004F8FEBD0000256400001B
:1020C00070B505460E4614460CE022783146284687
:1020D000FFF7B4FFA81DC5B27A2D02DD0025701CE4
:1020E000C6B2641C20780028EFD170BD70B50546DB
:1020F0000E46144615E0207800F0800020B1E41C64
:1021000005F10C00C5B206E0227831462846FFF7FB
:1021100095FFA81DC5B27A2D02DD0025701CC6B240
:10212000641C20780028E6D170BD000010B504467C
:102130004FF400610348FFF788FA204600F05AF98F
:1021400010BD0000000C024010B504464FF40061C1
:102150000348FFF77CFA204600F04CF910BD000060
:10216000000C0240B0EE401AF0EE601A71EE613AD7
:10217000F0EE630AD0ED003A63EEA03AB0EE633AB7
:10218000D0ED033A90ED074AF4EEC43AF1EE10FABE
:1021900004DDD0ED073AC0ED033A10E0D0ED033A8C
:1021A00090ED074AB1EE444AF4EEC43AF1EE10FA6B
:1021B00005D2D0ED073AF1EE633AC0ED033AD0ED27
:1021C000013A90ED034A23EE842AD0ED023A90EDD5
:1021D000044A30EEC44A63EE842AC0ED040A73EE6A
:1021E000023A33EEA20AD0ED063AF4EEC03AF1EE2E
:1021F00010FA04D2D0ED063AB0EE630A0AE0D0ED50
:10220000053AF4EEC03AF1EE10FA03DDD0ED053AEE
:10221000B0EE630A7047000080ED000AC0ED010ACD
:1022200080ED021A9FED092A80ED032A9FED072A0F
:1022300080ED042A9FED062A80ED052A9FED052AF0
:1022400080ED062AC0ED071A70470000000000006C
:10225000000080C60000804680ED050AC0ED060A39
:102260007047704710B50748007848B1FFF73EFE49
:10227000054A00210846FFF739FF00200149087090
:1022800010BD00000E000020D403002029B1064A32
:1022900012680243044B1A6004E0034A1268824346
:1022A000014B1A60704700003038024029B1064ADD
:1022B00012680243044B1A6004E0034A1268824326
:1022C000014B1A60704700004038024029B1064AAD
:1022D00012680243044B1A6004E0034A1268824306
:1022E000014B1A60704700002038024029B1064AAD
:1022F00012680243044B1A6004E0034A12688243E6
:10230000014B1A607047000024380240F0B50021EC
:1023100000220024022500260223324F3F6807F0E6
:102320000C0121B1042905D0082937D105E02E4F31
:10233000076036E02D4F076033E02A4F3F1F3F68AC
:10234000C7F38056274F3F1F3F6807F03F036EB12A
:10235000264FB7FBF3F7DFF88CC0ACF1040CDCF8C8
:1023600000C0CCF3881C07FB0CF40CE01E4FB7FB3D
:10237000F3F7DFF870C0ACF1040CDCF800C0CCF36C
:10238000881C07FB0CF4174F3F1F3F68C7F301473A
:102390007F1C7D00B4FBF5F7076002E0124F076079
:1023A00000BF00BF0F4F3F6807F0F0010909104F51
:1023B0007A5C0768D74047600A4F3F6807F4E051EE
:1023C000890A0B4F7A5C4768D7408760054F3F68A2
:1023D00007F46041490B064F7A5C4768D740C760F5
:1023E000F0BD0000083802400024F40000127A001A
:1023F0009A00002070B5044600251AE04FF4804191
:102400000D48FFF722F904F0800028B14FF4005185
:102410000948FFF71CF904E04FF400510648FFF7A4
:1024200014F94FF480410448FFF711F96006040ED7
:102430006D1C082DE2DB70BD000C024070470000EF
:102440000CB50020019000903448006840F48030C2
:102450003249086000BF3148006800F40030009045
:102460000198401C0190009818B90198B0F5A04F50
:10247000F1D12A48006800F4003010B1012000902A
:1024800001E0002000900098012846D12348403008
:10249000006840F0805021494031086020480068C1
:1024A00040F440401E4908601C48083000681B4941
:1024B000083108600846006840F40040086008469B
:1024C000006840F4A05008601648091F0860081F03
:1024D000006840F08070091F086000BF0F48006866
:1024E00000F000700028F9D040F205700E49086035
:1024F0000A480830006820F00300084908310860E5
:102500000846006840F00200086000BF0348083039
:10251000006800F00C000828F8D10CBD003802401B
:102520000070004008544007003C0240042808D1D5
:102530004FF0E021096941F004014FF0E022116100
:1025400007E04FF0E021096921F004014FF0E0229B
:10255000116170477047000010B51548006840F4DD
:102560007000134908601348006840F001001149E9
:10257000086000200F49083108600E4800680E49C5
:1025800008400C4908600D48091D0860081F0068D4
:1025900020F48020091F0860002006490C310860E3
:1025A000FFF74EFF4FF0006001498039086010BD11
:1025B00088ED00E000380240FFFFF6FE10300024F6
:1025C0001CB50121234800F00EFB002840D001215A
:1025D000204800F0F9FA20480068401C1E490860B5
:1025E000FFF740FE1D481E491E4B1F4ACDE9001053
:1025F0001E491F4801F0A8FC1E48006870B91A481F
:102600000068142190FBF1F01B490860174800682E
:10261000142190FBF1F0194908600DE0154800689D
:10262000012809D1104800684042134908600F484A
:102630000068404211490860074800684FF4FA7189
:10264000B0FBF1F201FB120010B901200C49087037
:102650001CBD000000100040940000203400002049
:102660004400002040000020300000202C0000200A
:10267000D4030020840000203C000020380000200B
:10268000980000207FB505460C4601211020FFF779
:102690000DFE0295ADF804400020ADF80C00ADF839
:1026A000060001A90D4800F0B9FA012211460B48B5
:1026B00000F0AAFA0121094800F089FA36208DF8C5
:1026C000000001208DF8010003208DF80200012098
:1026D0008DF803006846FFF7C3FB7FBD0010004084
:1026E00030B52DED108B83B00121FE4800F07BFA50
:1026F00000287CD00121FB4800F066FA0024FA484B
:1027000090ED000AB8EEC00AF0EE409AF74890ED5E
:10271000000AB8EEC00AB0EE40AAF0EE690A9FEDDA
:10272000F40AF448FFF71EFDB1EE400AB0EE408A0D
:10273000F0EE4A0A9FEDEE0AEE482030FFF712FD58
:10274000B1EE400AF0EE408AEB48B0F9040000EE2A
:10275000100AF8EEC00A9FEDE91A80EE810ADFED5B
:10276000E80A20EE200AF0EE40AAE64890ED000AC2
:1027700030EE6A0AB0EE40DADFEDDD0AB0EE4D0A67
:10278000E148FFF7EFFCB0EE409AE04890ED051A03
:10279000F0EE410ADE4890ED001AB8EEC11A31EEB3
:1027A000491A31EE081A31EE681AB0EE410AD148E2
:1027B0008038FFF7D7FCF0EE40DAD44890ED0B1AE2
:1027C000F0EE410AD24890ED011AB8EEC11A31EE8E
:1027D000491A31EE081A31EE281AB0EE410AC548FE
:1027E0006038FFF7BFFCB0EE40EAC84800E0B7E150
:1027F00090ED111AF0EE410AC54890ED021AB8EEBC
:10280000C11A31EE491A31EE481A31EE681AB0EEAB
:10281000410AB8484038FFF7A5FCF0EE40EABB4853
:1028200090ED171AF0EE410AB94890ED031AB8EE90
:10283000C11A31EE491A31EE481A31EE281AB0EEBB
:10284000410AAC482038FFF78DFCB0EE40FAB048A2
:1028500090ED000AB8EEC00AAC48D0ED050A30EEA3
:10286000600A10EE101A084602F03EFC41EC1C0B08
:10287000B0EE4C0AF0EE6C0A00F09DFDB0EE40BAEE
:10288000F0EE60BA9FEDA30B53EC102B51EC1B0B39
:1028900002F064FB02D80120A04908609C4890ED3A
:1028A000010AB8EEC00A9948D0ED0B0A30EE600A72
:1028B00010EE101A084602F017FC41EC1C0BB0EEAB
:1028C0004C0AF0EE6C0A00F076FDB0EE40BAF0EE85
:1028D00060BA9FED900B53EC102B51EC1B0B02F0E8
:1028E0003DFB02D801208E490860894890ED020A1C
:1028F000B8EEC00A8548D0ED110A30EE600A10EE3D
:10290000101A084602F0F0FB41EC1C0BB0EE4C0A2A
:10291000F0EE6C0A00F04FFDB0EE40BAF0EE60BA97
:102920009FED7C0B53EC102B51EC1B0B02F016FBB4
:1029300002D801207B490860754890ED030AB8EE83
:10294000C00A7248D0ED170A30EE600A10EE101A75
:10295000084602F0C9FB41EC1C0BB0EE4C0AF0EE4D
:102960006C0A00F028FDB0EE40BAF0EE60BA9FEDC0
:10297000690B53EC102B51EC1B0B02F0EFFA02D851
:10298000012069490860684800686449096808448A
:10299000634909680844634909680844002809DD57
:1029A0000120614908605D4908605D4908605D4932
:1029B0000860012434B100231A4619461846FFF76F
:1029C00019FACCE05148B0F9020000EE100AB8EE56
:1029D000C00AF0EE400AB0EE6D0A5448FFF7C2FBA1
:1029E000B0EE40BA4948B0F91A0000EE100AB8EE4D
:1029F000C00AF0EE400AB0EE4E0A4C482030FFF715
:102A0000B1FBF0EE40BA4148B0F9320000EE100AD6
:102A1000B8EEC00AF0EE400AB0EE6E0A434840300D
:102A2000FFF7A0FBB0EE40CA3848B0F94A0000EE0C
:102A3000100AB8EEC00AF0EE400AB0EE4F0A3B486A
:102A40006030FFF78FFBF0EE40CA3048B0F9040069
:102A500000EE100AB8EEC00AF0EE400AB0EE4B0AE3
:102A60003348FFF77FFBBDEEC00A10EE100A00B23C
:102A7000ADF804002548B0F91C0000EE100AB8EECD
:102A8000C00AF0EE400AB0EE6B0A29482030FFF78A
:102A900069FBBDEEC00A10EE100A00B2ADF80600E8
:102AA0001A48B0F9340000EE100AB8EEC00AF0EE91
:102AB000400AB0EE4C0A1E484030FFF753FBBDEE13
:102AC000C00A10EE100A00B2ADF808000F48B0F9C5
:102AD0004C0000EE100AB8EEC00AF0EE400AB0EE6C
:102AE0006C0A27E000140040380000203C00002061
:102AF00000000000D401002000000020000000477A
:102B0000000034435800002034010020D40000208D
:102B1000C400002000000000000032401C00002023
:102B2000200000202400002028000020D4010020E4
:102B3000540200200C48FFF715FBBDEEC00A10EE52
:102B4000100A00B2ADF80A00BDF90A30BDF908203C
:102B5000BDF90610BDF90400FFF74CF900BF00BF36
:102B600003B0BDEC108B30BDB40200207FB505462C
:102B70000C4601212020FFF799FB0295ADF8044097
:102B80000020ADF80C00ADF8060001A90D4800F0DA
:102B900045F8012211460B4800F036F8012109489A
:102BA00000F015F837208DF8000001208DF80100A5
:102BB00003208DF8020001208DF803006846FFF71E
:102BC0004FF97FBD00140040CA430282704721B113
:102BD000028842F00102028004E002884FF6FE7390
:102BE0001A400280704730B50246002000230024BE
:102BF000158A05EA0103958905EA010413B10CB1B0
:102C0000012000E0002030BD1AB183890B4383818D
:102C100002E083898B438381704700000022028891
:102C2000184B98420ED0184B98420BD0B0F1804F01
:102C300008D0164B984205D0154B984202D0154B40
:102C4000984204D14FF68F731A404B881A43124BA7
:102C5000984207D0114B984204D04FF6FF431A40D8
:102C60000B891A4302804B68C3620B880385054BAE
:102C7000984202D0044B984201D18B7A03860123FB
:102C800083827047000001400004014000040040BE
:102C900000080040000C00400010004000140040FC
:102CA00010B540F225510A4800F07BFA50B10849AE
:102CB000091D0988C8B2FEF719FC40F225510448E5
:102CC00000F0CFF94FF45871014800F0CAF910BD77
:102CD000004C004010B540F22551194800F061FA4F
:102CE00060B3174800F016FBC4B20D2C05D140F2BA
:102CF0002551134800F0B5F910BD12480088B0F511
:102D0000FF7F06DC0F490888411C0E4A11800E49DE
:102D10000C540A2C04D00B480088B0F5FF7F07DD67
:102D200000210948074A1288815401200749087088
:102D300040F22551024800F094F900BF00BFDBE7E4
:102D4000005000400C000020D40300200E000020A2
:102D500070B505460E46002413E000BF80210A48E6
:102D600000F012FA0028F9D0295D074800F0D7FAE0
:102D700000BF4021044800F007FA0028F9D0601C89
:102D800084B2B442E9DB70BD005000401FB5044678
:102D900001214804FFF78AFA144800F07DF96846DB
:102DA00000F0C1FA00940020ADF80400ADF8060070
:102DB000ADF808000C20ADF80A000020ADF80C00BA
:102DC00069460A4800F03CFA00F078F820210748EC
:102DD00000F03EF9012240F22551044800F00BFAC0
:102DE0000121024800F04CF91FBD000000440040E2
:102DF0001CB501210846FFF749FA072202211948AC
:102E0000FEF700FC072203211648FEF7FBFB68468D
:102E1000FEF71FFC0420009002208DF80400032020
:102E20008DF8050000208DF8060001208DF80700C0
:102E300069460C48FEF79EFB6846FEF70AFC082030
:102E4000009002208DF8040003208DF8050000207A
:102E50008DF8060001208DF8070069460148FEF74D
:102E600089FB1CBD0000024010B540F225511048FE
:102E700000F097F9D0B10E4800F04CFAC4B20D48FA
:102E80000088FF280EDA0B490888411C094A118086
:102E900009490C540A2C08D100201288885405498D
:102EA000088002E000200349088000BF10BD000038
:102EB000004400400A000020D402002008B526206B
:102EC0008DF8000000208DF801008DF8020001202F
:102ED0008DF803006846FEF7C3FF08BD10B588B043
:102EE000044601210420FFF7D1F90121C804FFF7AE
:102EF000DDF94FF44060069002208DF81C008DF83B
:102F00001D0000208DF81E0001208DF81F0006A96D
:102F10001B48FEF72FFB08220A211948FEF772FB17
:102F200008220B211648FEF76DFB02940020ADF835
:102F30000C00ADF80E00ADF81000ADF814000C2038
:102F4000ADF8120002A90F4800F07AF901210D48EE
:102F500000F096F834208DF8040000208DF805006C
:102F60008DF8060001208DF8070001A8FEF778FF14
:102F7000012240F22551034800F03DF908B010BD90
:102F800000080240004C004000B587B00121042039
:102F9000FFF77CF901210820FFF778F901210805E6
:102FA000FFF784F94FF48050059002208DF8180047
:102FB0008DF8190000208DF81A0001208DF81B00F3
:102FC00005A92048FEF7D6FA0420059005A91E4859
:102FD000FEF7D0FA08220C211A48FEF713FB08224C
:102FE00002211948FEF70EFB4FF416500190002005
:102FF000ADF80800ADF80A00ADF80C000C20ADF8F3
:103000000E000020ADF8100001A9104800F018F9DA
:1030100035208DF8000000208DF801008DF80200A9
:1030200001208DF803006846FEF71AFF012240F2E6
:103030002551064800F0DFF80121044800F020F88F
:1030400007B000BD00080240000C024000500040E4
:1030500001F40072B2F5007F00D100BFCA430280C4
:10306000704710B50022002340F66A14A14200D137
:1030700000BF0A1201249440A3B2DC43048010BDB7
:1030800021B1828942F40052828104E082894DF6A6
:10309000FF731A408281704710B50446324884425B
:1030A00008D101211020FFF721F900211020FFF79E
:1030B0001DF957E02D48844209D101214804FFF74A
:1030C00005F900214FF40030FFF700F94AE02848E5
:1030D000844209D101218804FFF7F8F800214FF458
:1030E0008020FFF7F3F83DE02248844209D1012116
:1030F000C804FFF7EBF800214FF40020FFF7E6F8D3
:1031000030E01D48844209D101210805FFF7DEF8AF
:1031100000214FF48010FFF7D9F823E017488442CC
:1031200008D101212020FFF7E1F800212020FFF73E
:10313000DDF817E01248844209D101218807FFF722
:10314000C5F800214FF08040FFF7C0F80AE00D48B5
:10315000844207D101214005FFF7B8F8002160053E
:10316000FFF7B4F810BD000000100140004400401B
:1031700000480040004C0040005000400014014056
:1031800000780040007C004002460020B1F5007F3E
:1031900000D100BF13880B400BB1012000E00020DC
:1031A000704770B50246002400230025002040F639
:1031B0006A16B14200D100BFC1F3421501F01F03EE
:1031C000012606FA03F3012D02D19689334006E069
:1031D000022D02D1168A334001E0968A33400C1248
:1031E000012606FA04F41688344013B10CB101200C
:1031F00000E0002070BDF0B5034600240026002545
:10320000002040F66A17B94200D100BF1846C1F34A
:10321000421401F01F06012707FA06F5012C01D11F
:103220000C3004E0022C01D1103000E014301AB14F
:1032300007682F43076002E00768AF430760F0BDEF
:103240002DE9FF4705460E460024A14600BFA046D3
:10325000B08900B100BF2C8A24F44054F0880443A4
:103260002C82AC8941F20C608443B08831890843D8
:10327000718908430443AC81AC8A24F44074B0895A
:103280000443AC826846FFF741F82048854202D0EB
:103290001F48854202D1DDF80C9001E0DDF808906E
:1032A000A88900F4004040B109EBC90000EB091007
:1032B00031684900B0FBF1F707E009EBC90000EB0A
:1032C000091031688900B0FBF1F76420B7FBF0F01A
:1032D00004012009642101FB1078A88900F4004052
:1032E00040B1322000EBC800B0FBF1F000F0070065
:1032F000044308E0322000EB08106421B0FBF1F039
:1033000000F00F0004432C81BDE8FF87001001404E
:103310000014014001468888C0F308007047C1F3DB
:103320000802828070474FF41651016000218180AD
:10333000C18001810C214181002181817047000001
:1033400010B5FEF7D3FD0C48022102680020FEF7FD
:10335000A5FE0A48022102681820FEF79FFE0848D1
:10336000062102680020FEF799FE04480621026843
:103370001820FEF793FE10BD38000020300000201A
:103380002C00002000BFFEE72DE9F04107460D4666
:10339000164600240BE0295D3846FFF7C0FF00BF4A
:1033A00080213846FFF7F0FE0028F9D0641CB442B3
:1033B000F1D3BDE8F0812DED020B019820F0004023
:1033C00001909DED000B02B07047000010B504465F
:1033D00004B910BD6FF00400FFF7A8F8E11704EB83
:1033E0005171C910054A1160104600684FF47A7196
:1033F00048430349086000BFEBE70000AC00002031
:10340000B000002070B504464FF4FA70B4FBF0F53C
:10341000B4FBF0F100FB114603E0074800F00EF8A2
:103420006D1E002DF9D12EB14FF47A7106FB01F01B
:1034300000F004F870BD000020A107000146114A09
:1034400012684A434FF0E0235A6100229A611A46FB
:10345000126942F001021A6100BF4FF0E0221069C8
:1034600000F001021AB100F48032002AF5D04FF0CA
:10347000E022126922F001024FF0E0231A610022DB
:103480009A617047AC00002010B54FF47A7240F694
:103490004A41012000F01CFD3220FFF7B3FF4FF43A
:1034A0007A7240F61F51022000F012FD4FF4FA70BC
:1034B000FFF7A8FF4FF47A7240F2E351032000F0C7
:1034C00007FD4FF4FA70FFF79DFF4FF47A7240F654
:1034D000E661042000F0FCFC4FF4FA70FFF792FF65
:1034E0004FF47A7240F6C451052000F0F1FC4FF41D
:1034F0007A70FFF787FF4FF47A7240F68A01062050
:1035000000F0E6FC10BD00000EB5FFF725F8FEF751
:1035100009FDFEF7EBFCA820FFF758FF40F247310A
:103520006320FFF7AFF840F247316320FFF71EFB3F
:10353000FEF79AF8FDF798FB01220221FE48FDF7FD
:103540001DFD1420012181404209920002F1E02278
:10355000C2F8001100BF0020F84908604FF4E130C4
:10356000FFF7BCFCFFF710FD4FF44070FEF7B4FC12
:10357000FFF73EFC4FF4E130FFF708FCA820FFF70F
:1035800025FF4FF47A70FFF73DFFFFF77DFFFEF751
:1035900095FBFCE3EA48007820B1FFF7D1FE00205C
:1035A000E749087000231A462821184601F024FB39
:1035B00001E0FFF7C5FEE34800680128F9D1E248C1
:1035C00000680128F5D1E14800680128F1D1E04800
:1035D00000680128EDD14FF49670FFF713FF9FEDBF
:1035E000DD0ADD4880ED000A00231A4628216FF02D
:1035F0004F0001F001FB01E0FFF7A2FED148006897
:103600000128F9D1D04800680128F5D1CF480068D9
:103610000128F1D1CE4800680128EDD130E0CF4833
:10362000006840F2E73188422AD0CD4800688842DD
:1036300026D0CA4800680A2190FBF1F201FB120073
:10364000C8490860C54800680968401A0A2190FB0B
:10365000F1F090FBF1F201FB1200C3490860BF4892
:103660000068C0490968401ABF49096801EB810137
:10367000A0EB4100642190FBF1F0BC49086000E040
:10368000CDE700BFFDF720FF40F6B830FFF7BAFEE8
:103690009FEDB70AB04880ED000A00231A461E21AC
:1036A0006FF0BD0001F0A8FA0120B24908600020C7
:1036B000B1490860B1490860B1490860FDF7D4FF1D
:1036C00001E0FFF73DFE9F4800680128F9D19E48C0
:1036D00000680128F5D19D4800680128F1D19C4877
:1036E00000680128EDD14FF49670FFF78BFE01F0D2
:1036F00059FB40F6B830FFF785FEA2A000680290A3
:1037000000250BE002A8FCF705FF87B2394602A8A6
:10371000FFF71EFB6420FFF775FE6D1C012DF1DB2A
:10372000012600246BE098480068B0F57A7F66DCDB
:1037300096480068B0F57A7F61DC01209449086002
:10374000002094490860FDF78FFF93480068BE3859
:1037500092490860924800681E3092490860002330
:103760001A46084601688D48006801F045FA0023B2
:103770001A468C4801688948006801F03DFA8A4879
:10378000006842F20771884209D087480068491CE6
:10379000884204D084480068491C88422FD129E01F
:1037A0008148006842F20771884207D100F073FE39
:1037B00001F0F8FA641C6F207B4908607A480068C1
:1037C00042F20871884207D100F057FE01F0EAFA90
:1037D000641C6F20744908607348006842F20971E4
:1037E000884207D100F03BFE01F0DCFA641C6F2038
:1037F0006D490860032CD3DBFFF746FE0FE06A48F3
:10380000006842F2077188428DD167480068491C00
:10381000884288D164480068491C884283D100BF2F
:1038200000205B490860FDF71FFF9FED600A4A48D2
:1038300080ED000A4FF47A70FFF7E4FD00231A468A
:1038400014216FF05E0001F0D7F9002049490860AB
:10385000494908600120494908600020484908603A
:10386000FDF702FF01E0FFF76BFD36480068012815
:10387000F9D1354800680128F5D13448006801289D
:10388000F1D1334800680128EDD14FF47A70FFF789
:10389000B9FD00231A4696216FF05E0001F0ACF9E5
:1038A0000020344908603449086001203349086029
:1038B000002033490860FDF7D7FE01E0FFF740FD27
:1038C000204800680128F9D11F4800680128F5D177
:1038D0001E4800680128F1D11D4800680128EDD17B
:1038E0004FF47A70FFF78EFD00231A46E6216FF041
:1038F0005E0001F081F900201E49086001201E4988
:10390000086000201D4908601D490860FDF7ACFEF5
:1039100001E0FFF715FD0B4800680128F9D10A48BE
:1039200000680128F5D1094800680128F1D108484C
:1039300000680128EDD13BE0006400401800002041
:10394000980000201C0000202000002024000020FF
:1039500028000020000040425800002040000020C5
:1039600044000020880000208C00002090000020EF
:1039700000003C4268000020640000206C00002031
:1039800070000020310A00002C00002030000020D0
:1039900074000020840000203800002078000020FF
:1039A0003C0000207C000020340000200000344255
:1039B0004FF47A70FFF726FD01F030FA012600245B
:1039C0000020FE490860FE490860FE490860FE4983
:1039D0000860FDF749FE0020FC490860FC490860CA
:1039E0004FF47A70FFF70EFDFAA0006801900025F1
:1039F00008E001A8FCF78EFD87B2394601A8FFF761
:103A0000A7F96D1C0A2DF4DB5CE0ED480068B0F509
:103A10007A7F57DCEB480068B0F57A7F52DC0120F2
:103A2000E9490860EC490860FDF71EFEE4480068BB
:103A30006FF04501081AE9490860E2480068C0F1E2
:103A4000E600E749086000231A4608460168E34893
:103A5000006801F0D1F800231A46E1480168DF4808
:103A6000006801F0C9F8D548006842F20871884240
:103A700028D121E000F00AFB01F0D0F91FED440A43
:103A8000D84880ED000A641C00F0C0FA01F0C6F9C5
:103A90001FED490AD34880ED000A641C00F0D6FAF5
:103AA00001F0BCF91FED4E0ACE4880ED000A641CFF
:103AB0006F20C249086001E0032CDBDB00BFFFF789
:103AC000E3FC13E0BD48006842F2077188429CD1D4
:103AD000BA480068491C884297D1B8480068491C18
:103AE000884292D1B54800686F288ED100BF00236C
:103AF0001A4664216FF0590001F07EF80020BA499F
:103B000008600120B94908600020B9490860B94936
:103B10000860FDF7A9FD01E0FFF712FCB648006858
:103B20000128F9D1B54800680128F5D1B4480068EA
:103B30000128F1D1B34800680128EDD14FF47A7023
:103B4000FFF760FC00231A4678216FF0D10001F0E6
:103B500053F80020A4490860A4490860A4490860FB
:103B60000120A4490860FDF77FFD01E0FFF7E8FBB5
:103B7000A14800680128F9D1A04800680128F5D1C2
:103B80009F4800680128F1D19E4800680128EDD1C6
:103B90004FF47A70FFF736FC01F07FF99AA00068C5
:103BA0000090002508E001A8FCF7B4FC87B2394674
:103BB00001A8FFF7CDF86D1C0A2DF4DB58E0804812
:103BC0000068B0F57A7F53DC7E480068B0F57A7FF4
:103BD0004EDC01207C4908607F490860FDF744FD08
:103BE00077480068D2387D49086076480068C0F19F
:103BF00078007B49086000231A4608460168774828
:103C0000006800F0F9FF00231A4675480168734800
:103C1000006800F0F1FF6948006842F208718842CC
:103C200026D120E000F042FA01F037F91FEDB00A8A
:103C30006C4880ED000A641C00F0F8F901F02DF9E1
:103C40001FEDB50A674880ED000A641C00F00EFA0B
:103C500001F023F91FEDBA0A624880ED000A641CE6
:103C6000002056490860022CDCDBFFF70DFC0FE05A
:103C70005248006842F207718842A0D14F4800685C
:103C8000491C88429BD14D480068491C884296D106
:103C900000BF00231A4678216FF0590000F0ACFFF6
:103CA00000205149086051490860514908600120CD
:103CB00050490860FDF7D8FC01E0FFF741FB4E4892
:103CC00000680128F9D14D4800680128F5D14C4819
:103CD00000680128F1D14B4800680128EDD14FF46C
:103CE0009670FFF78FFB00231A467821192000F009
:103CF00083FF00203C4908603C4908603C4908605B
:103D000001203C490860FDF7AFFC01E0FFF718FB1C
:103D1000394800680128F9D1384800680128F5D1F0
:103D2000374800680128F1D1364800680128EDD1F4
:103D30004FF49670FFF766FB00231A466FF00E01F2
:103D4000184600F059FF00202749086027490860FD
:103D500027490860012027490860FDF785FC01E03C
:103D6000FFF7EEFA244800680128F9D123480068DB
:103D70000128F5D1224800680128F1D121480068C6
:103D80000128EDD14FF49670FFF73CFB00E08BE08B
:103D90009FED1E0A134880ED000A00231A466FF0BB
:103DA0000E01184600F028FF00200F4908600F4957
:103DB00008600F49086001200E4929E03400002006
:103DC000380000203C000020740000202C0000205F
:103DD00030000020320A000084000020780000201B
:103DE0007C000020580000206800002064000020B3
:103DF0006C000020700000201C000020200000202B
:103E00002400002028000020330A000000000000E9
:103E10000860FDF729FC01E0FFF792FA23480068EB
:103E20000128F9D1224800680128F5D1214800680D
:103E30000128F1D1204800680128EDD14FF4967097
:103E4000FFF7E0FA1FED0F0A1C4880ED000A00237F
:103E50001A466FF00E010F2000F0CEFE0020184928
:103E6000086018490860184908600120174908606F
:103E7000FDF7FAFB03E001E0FFF762FAFCE70B480D
:103E800000680128F7D10A4800680128F3D10948E1
:103E900000680128EFD1084800680128EBD14FF4F1
:103EA0009670FFF7AFFA00BFFFF774BB1C0000204D
:103EB00020000020240000202800002058000020BE
:103EC00068000020640000206C00002070000020CA
:103ED0002DE9F05F07460D46164619488770002405
:103EE00005F0FF08FF2095FBF0F000F0FF0A1448F2
:103EF00080F8068080F807A006F0FF09FF2096FBF7
:103F0000F0F000F0FF0B0E4880F80A9080F80BB03C
:103F1000022004E00A49095C2144CCB2401C0C2870
:103F2000F8DBFF2C00DDE4B2E043C4B204480473C4
:103F30000D2201460348FFF727FABDE8F09F000075
:103F4000B4000020004400402DE9F04704460E462E
:103F500017469846DDE9089A2046FCF7DBFA054645
:103F60002078412813D160785A2810D1A81E205CEF
:103F70005A280CD1681E205C412808D13B463246A5
:103F80001AA12046FCF702FAFDF79EFA2BE02078F2
:103F9000422813D160785A2810D1A81E205C5A28D4
:103FA0000CD1681E205C422808D14B46424612A123
:103FB0002046FCF7EBF9FDF787FA14E02078432858
:103FC00011D160785A280ED1A81E205C5A280AD137
:103FD000681E205C432806D152460AA12046FCF701
:103FE000D5F9FDF771FABDE8F0870000415A256464
:103FF0002B25645A41000000425A25642B25645A3F
:1040000042000000435A25645A43000010B500F0F6
:104010005DF84FF47A70FFF7F5F900F09CFA4FF471
:104020007A70FFF7EFF900F044FA10BD10B500F018
:104030008EF84FF47A70FFF7E5F900F017FB4FF4B4
:104040007A70FFF7DFF900F034FA10BD10B500F018
:10405000BFF84FF47A70FFF7D5F900F0C6FB4FF4C4
:104060007A70FFF7CFF900F024FA10BD10B500F018
:10407000F5F84FF47A70FFF7C5F900F01EFC4FF425
:104080007A70FFF7BFF900F014FA10BD10B500F018
:104090002BF94FF47A70FFF7B5F900F0AAFC4FF452
:1040A0007A70FFF7AFF900F004FA10BD10B500F018
:1040B0005CF94FF47A70FFF7A5F900F01BFD4FF49F
:1040C0007A70FFF79FF900F0F4F910BD10B54FF4C6
:1040D0007A724FF47F710120FFF7FAFE4FF47A7283
:1040E00040F2DE610220FFF7F3FE3220FFF78AF98B
:1040F0004FF47A7240F62C310620FFF7E9FE4FF4B8
:104100007A7240F6B5110520FFF7E2FEC820FFF7EE
:1041100079F94FF47A7240F61B610420FFF7D8FE5C
:104120004FF4FA70FFF76EF94FF47A7240F2DC51F7
:104130000320FFF7CDFE40F2DC50FFF763F94FF4A8
:104140007A7240F64E410620FFF7C2FE10BD10B550
:104150004FF47A7240F60C010120FFF7B9FE4FF4DC
:104160007A7240F2DE610220FFF7B2FE3220FFF7E2
:1041700049F94FF47A7240F62C310620FFF7A8FE79
:104180004FF47A7240F6B5110520FFF7A1FEC82062
:10419000FFF738F94FF47A7240F61B610420FFF7FD
:1041A00097FE4FF4FA70FFF72DF94FF47A7240F250
:1041B000DC510320FFF78CFE40F2DC50FFF722F9C0
:1041C0004FF47A7240F64E410620FFF781FE10BD93
:1041D00010B54FF47A7240F2F2310120FFF778FE09
:1041E0004FF4FA70FFF70EF94FF47A724FF4396119
:1041F0000620FFF76DFE4FF47A7240F63A21052053
:10420000FFF766FEC820FFF7FDF84FF47A7240F61C
:1042100025610420FFF75CFE4FF4FA70FFF7F2F817
:104220004FF47A7240F2F4510320FFF751FE4FF43D
:104230004870FFF7E7F84FF47A7240F64701022022
:10424000FFF746FE4FF4FA60FFF7DCF84FF47A729E
:1042500040F61C410620FFF73BFE10BD10B54FF4A1
:104260007A7240F60C010120FFF732FE4FF4FA702B
:10427000FFF7C8F84FF47A724FF439610620FFF760
:1042800027FE4FF47A7240F63A210520FFF720FE10
:10429000C820FFF7B7F84FF47A7240F62561042082
:1042A000FFF716FE4FF4FA70FFF7ACF84FF47A728E
:1042B00040F2F4510320FFF70BFE4FF44870FFF774
:1042C000A1F84FF47A7240F647010220FFF700FE92
:1042D0004FF4FA60FFF796F84FF47A7240F61C41FB
:1042E0000620FFF7F5FD10BD10B54FF47A724FF4BC
:1042F0007F710120FFF7ECFD4FF47A7240F6B111A7
:104300000220FFF7E5FD3220FFF77CF84FF47A72C8
:1043100040F62C310620FFF7DBFD4FF47A7240F6B1
:10432000BB110520FFF7D4FDC820FFF76BF84FF451
:104330007A7240F61E610420FFF7CAFD4FF4FA704E
:10434000FFF760F84FF47A7240F2DF510320FFF775
:10435000BFFD40F2DC50FFF755F84FF47A7240F69B
:104360004E410620FFF7B4FD10BD10B54FF47A7230
:1043700040F60C010120FFF7ABFD4FF47A7240F6D6
:10438000B1110220FFF7A4FD3220FFF73BF84FF4F4
:104390007A7240F62C310620FFF79AFD4FF47A72BC
:1043A00040F6BB110520FFF793FDC820FFF72AF860
:1043B0004FF47A7240F61E610420FFF789FD4FF436
:1043C000FA70FFF71FF84FF47A7240F2DF510320C2
:1043D000FFF77EFD40F2DC50FFF714F84FF47A72DD
:1043E00040F64E410620FFF773FD10BD10B54FF4A7
:1043F000FA6240F2F2710320FFF76AFD4FF4FA709F
:10440000FFF700F84FF4FA6240F24F210420FFF763
:104410005FFD4FF4FA70FEF7F5FF4FF4FA6240F2D9
:104420001C710320FFF754FD4FF4FA70FEF7EAFF0A
:104430004FF4FA6240F21B310420FFF749FD4FF4BC
:10444000C870FEF7DFFF40F6C41240F64E4106206A
:10445000FFF73EFD4FF4C870FEF7D4FF10BD10B556
:10446000FFF7C4FF4FF4C870FEF7CCFF00F034F83C
:104470004FF4C870FEF7C6FF10BD10B5FFF7B6FFCA
:104480004FF4C870FEF7BEFF00F07BF94FF4C87020
:10449000FEF7B8FF10BD10B5FFF7A8FF4FF4C870C6
:1044A000FEF7B0FF00F071FA4FF4C870FEF7AAFFF4
:1044B00010BD10B54FF47A724FF473710420FFF7FA
:1044C00007FD6420FEF79EFF4FF47A7240F2FF7101
:1044D0000320FFF7FDFC10BD10B540F2DC5240F6A2
:1044E0001B610420FFF7F4FC3220FEF78BFF40F243
:1044F000145240F62B410120FFF7EAFC4FF4FA700A
:10450000FEF780FF40F2145240F2EA610220FFF70A
:10451000DFFC4FF4FA70FEF775FF40F214524FF4CF
:10452000B9610320FFF7D4FC4FF4FA70FEF76AFF7D
:1045300040F2DC5240F6D3110520FFF7C9FC40F2EF
:10454000DC50FEF75FFF4FF47A7240F672310620BE
:10455000FFF7BEFC10BD10B54FF47A7240F2F23195
:104560000120FFF7B5FCC820FEF74CFF4FF47A722C
:1045700040F2F6510420FFF7ABFCC820FEF742FFE3
:104580004FF47A7240F2C2710520FFF7A1FC4FF49C
:10459000FA70FEF737FF4FF47A724FF4C3610320CD
:1045A000FFF796FC4FF4FA70FEF72CFF4FF47A7287
:1045B00040F243710220FFF78BFC4FF4FA70FEF7D4
:1045C00021FF4FF47A7240F2DC510420FFF780FCA7
:1045D0004FF4FA70FEF716FF4FF47A7240F29661CC
:1045E0000320FFF775FC4FF4FA70FEF70BFF4FF452
:1045F0007A7240F2B9610320FFF76AFC4FF4FA7057
:10460000FEF700FF4FF47A7240F2AA310420FFF760
:104610005FFC4FF4FA70FEF7F5FE4FF47A7240F249
:104620004F610320FFF754FC4FF4FA70FEF7EAFEE7
:104630004FF47A7240F2B9510420FFF749FC4FF46D
:10464000FA70FEF7DFFE4FF47A724FF486610320B2
:10465000FFF73EFC4FF4FA70FEF7D4FE4FF4FA6217
:1046600040F6F3110620FFF733FC10BD10B54FF4F0
:104670007A7240F60F010120FFF72AFCC820FEF7EE
:10468000C1FE4FF47A7240F2F6510420FFF720FC8D
:10469000C820FEF7B7FE4FF47A7240F2C2710520CF
:1046A000FFF716FC4FF4FA70FEF7ACFE4FF47A7287
:1046B0004FF4C3610320FFF70BFC4FF4FA70FEF7D1
:1046C000A1FE4FF47A7240F243710220FFF700FC22
:1046D0004FF4FA70FEF796FE4FF47A7240F2DC5116
:1046E0000420FFF7F5FB4FF4FA70FEF78BFE4FF452
:1046F0007A7240F296610320FFF7EAFB4FF4FA70FA
:10470000FEF780FE4FF47A7240F2B9610320FFF7A2
:10471000DFFB4FF4FA70FEF775FE4FF47A7240F249
:10472000AA310420FFF7D4FB4FF4FA70FEF76AFEBB
:104730004FF47A7240F24F610320FFF7C9FB4FF448
:10474000FA70FEF75FFE4FF47A7240F2B95104201E
:10475000FFF7BEFB4FF4FA70FEF754FE4FF47A7287
:104760004FF486610320FFF7B3FB4FF4FA70FEF7B6
:1047700049FE4FF4FA6240F6F3110620FFF7A8FB5A
:1047800010BD10B540F2DC5240F61A610420FFF76C
:104790009FFB3220FEF736FE40F2DC5240F68E01DF
:1047A0000220FFF795FB4FF4FA70FEF72BFE40F264
:1047B000DC5240F206610320FFF78AFB4FF4FA70E7
:1047C000FEF720FE40F2DC524FF420610520FFF797
:1047D0007FFB40F2A460FEF715FE40F2DC5240F68B
:1047E00072310620FFF774FB10BD10B540F2DC52A9
:1047F00040F2F2310120FFF76BFB40F2DC5240F651
:104800001D010220FFF764FB40F2DC5240F2B93197
:104810000420FFF75DFB4FF4FA70FEF7F3FD40F262
:10482000DC5240F2BE710320FFF752FB4FF4FA70E6
:10483000FEF7E8FD40F2DC5240F245710520FFF73B
:1048400047FB4FF4FA70FEF7DDFD40F2DC5240F218
:10485000AB610320FFF73CFB4FF41670FEF7D2FD6F
:104860004FF4967240F27F510320FFF731FB4FF473
:10487000FA60FEF7C7FD40F2DC5240F2D541042059
:10488000FFF726FB4FF49670FEF7BCFD40F2DC52BA
:1048900040F20E510320FFF71BFB4FF49670FEF71A
:1048A000B1FD40F2DC5240F6F3110620FFF710FB99
:1048B00041F27070FEF7A6FD10BD10B540F2DC525B
:1048C00040F60C010120FFF703FB40F2DC5240F6FA
:1048D0001D010220FFF7FCFA40F2DC5240F2B93130
:1048E0000420FFF7F5FA4FF4FA70FEF78BFD40F263
:1048F000DC5240F2BE710320FFF7EAFA4FF4FA707F
:10490000FEF780FD40F2DC5240F245710520FFF7D2
:10491000DFFA4FF4FA70FEF775FD40F2DC5240F218
:10492000AB610320FFF7D4FA4FF41670FEF76AFD6F
:104930004FF4967240F27F510320FFF7C9FA4FF40B
:10494000FA60FEF75FFD40F2DC5240F2D5410420F0
:10495000FFF7BEFA4FF49670FEF754FD40F2DC52BA
:1049600040F20E510320FFF7B3FA4FF49670FEF7B2
:1049700049FD40F2DC5240F6F3110620FFF7A8FA99
:1049800041F27070FEF73EFD10BD10B540F2DC52F2
:1049900040F61D610420FFF79BFA3220FEF732FD3E
:1049A0004FF47A7240F608210220FFF791FA4FF493
:1049B000FA70FEF727FD4FF47A7240F2C6510320D9
:1049C000FFF786FA4FF4FA70FEF71CFD4FF47A7287
:1049D00040F6D3110520FFF77BFA40F2DC50FEF7DA
:1049E00011FD4FF47A7240F672310620FFF770FA2B
:1049F00010BD10B54FF47A7240F2F6510420FFF763
:104A000067FAC820FEF7FEFC4FF47A7240F2C271DA
:104A10000520FFF75DFA4FF4FA70FEF7F3FC4FF450
:104A20007A724FF4C3610320FFF752FA4FF4FA7021
:104A3000FEF7E8FC4FF47A7240F61E010220FFF701
:104A400047FA4FF4FA70FEF7DDFC4FF47A7240F249
:104A5000DC510420FFF73CFA4FF4FA70FEF7D2FC69
:104A60004FF47A7240F296610320FFF731FA4FF467
:104A7000FA70FEF7C7FC4FF47A7240F2B961032076
:104A8000FFF726FA4FF4FA70FEF7BCFC4FF47A7287
:104A900040F2AA310420FFF71BFA4FF4FA70FEF738
:104AA000B1FC4FF47A7240F24F610320FFF710FA25
:104AB0004FF4FA70FEF7A6FC4FF47A7240F2B95147
:104AC0000420FFF705FA4FF4FA70FEF79BFC4FF451
:104AD0007A724FF486610320FFF7FAF94FF4FA7007
:104AE000FEF790FC4FF4FA6240F6F3110620FFF750
:104AF000EFF910BD10B54FF47A7240F2F651042070
:104B0000FFF7E6F9C820FEF77DFC4FF47A7240F219
:104B1000C2710520FFF7DCF94FF4FA70FEF772FC62
:104B20004FF47A724FF4C3610320FFF7D1F94FF4C9
:104B3000FA70FEF767FC4FF47A7240F61E0102200D
:104B4000FFF7C6F94FF4FA70FEF75CFC4FF47A7287
:104B500040F2DC510420FFF7BBF94FF4FA70FEF786
:104B600051FC4FF47A7240F296610320FFF7B0F9DE
:104B70004FF4FA70FEF746FC4FF47A7240F2B961D6
:104B80000320FFF7A5F94FF4FA70FEF73BFC4FF452
:104B90007A7240F2AA310420FFF79AF94FF4FA70C2
:104BA000FEF730FC4FF47A7240F24F610320FFF7BA
:104BB0008FF94FF4FA70FEF725FC4FF47A7240F249
:104BC000B9510420FFF784F94FF4FA70FEF71AFC8C
:104BD0004FF47A724FF486610320FFF779F94FF4AE
:104BE000FA70FEF70FFC4FF4FA6240F6F31106205C
:104BF000FFF76EF910BD00002DE9F0412DED048B9B
:104C000004460D4616461F4600205B4908605B4976
:104C100008605B4908605B4908605B4804605B486A
:104C200005605B4806605B48076057480068574965
:104C30000968084456490968564A126801FB02008F
:104C400000EE100AB8EEC00AB0EE408A4E48006886
:104C500040424E490968401A4D4909684D4A126858
:104C600001FB020000EE100AB8EEC00AF0EE408A26
:104C70004548006845490968401A45490968454A58
:104C8000126801FB120000EE100AB8EEC00AB0EE86
:104C9000409A3D48006840423C49096808443C4904
:104CA00009683C4A126801FB120000EE100AB8EED7
:104CB000C00AF0EE409A3848D0ED000AB0EE600A23
:104CC000F0EE480AFDF758F8BDEEC00A334880ED13
:104CD000010A3148D0ED010AB0EE600AF0EE680A30
:104CE000FDF74AF8BDEEC00A2C4880ED020A2A48BA
:104CF000D0ED020AB0EE600AF0EE490AFDF73CF88A
:104D0000BDEEC00A254880ED000A2348D0ED030A15
:104D1000B0EE600AF0EE690AFDF72EF8BDEEC00AAB
:104D20001E4880ED030A90ED010AB8EEC00A1A4849
:104D300080ED000A194890ED020AB8EEC00A164844
:104D400080ED010A154890ED000AB8EEC00A12483D
:104D500080ED020A114890ED030AB8EEC00A0E4831
:104D600080ED030A0E480068401C0D490860BDEC48
:104D7000048BBDE8F08100001C0000202000002012
:104D80002400002028000020480000204C000020C3
:104D90005000002054000020E4050020C400002042
:104DA0006000002010B540F2DC524FF4D9610420BD
:104DB000FFF78EF83220FEF725FB40F2DC5240F67A
:104DC0002B410120FFF784F83220FEF71BFB40F255
:104DD000DC5240F2F1710220FFF77AF86420FEF70E
:104DE00011FB40F2DC5240F297610320FFF770F8AC
:104DF0004FF49670FEF706FB40F2DC524FF40B6165
:104E00000520FFF765F86420FEF7FCFA40F2DC525B
:104E100040F68A010620FFF75BF810BD10B54FF48D
:104E20007A724FF400610420FFF752F83220FEF747
:104E3000E9FA4FF47A7240F2F2310120FFF748F8B4
:104E40004FF4FA70FEF7DEFA4FF47A7240F61D0165
:104E50000220FFF73DF84FF47A70FEF7D3FA4FF4D3
:104E60007A7240F2DA510320FFF732F84FF4FA7009
:104E7000FEF7C8FA4FF47A7240F65E010520FFF79C
:104E800027F84FF47A70FEF7BDFA4FF47A7240F6C5
:104E90008A010620FFF71CF810BD10B54FF47A7296
:104EA0004FF400610420FFF713F83220FEF7AAFA4E
:104EB0004FF47A7240F60E010120FFF709F84FF423
:104EC000FA70FEF79FFA4FF47A7240F61D01022045
:104ED000FEF7FEFF4FF47A70FEF794FA4FF47A7201
:104EE00040F2DA510320FEF7F3FF4FF4FA70FEF7B9
:104EF00089FA4FF47A7240F65E010520FEF7E8FF6A
:104F00004FF47A70FEF77EFA4FF47A7240F68A0117
:104F10000620FEF7DDFF10BD10B500290AD0087885
:104F2000002807D005487844FBF7FCFD002801D095
:104F3000002010BD0248784410BD0000E60A0000C1
:104F4000DE0A0000491058BFC1F140415B1058BF54
:104F5000C3F140438B42EFF30080704751EA030CEA
:104F600017D41CF5801F58BFBCF5801F00F10680C8
:104F7000994218BF704708BF9042704707D711F594
:104F8000801F58BF13F5801F19D49942704789427A
:104F900070471CF5801F08D5BCF5801FF7D58B42E4
:104FA00018BF704708BF824270474FF4001C1CEBCB
:104FB000410F38BF1CEB430F01D28B42704770B5D5
:104FC00000F008F8922449004FF000514FF0805350
:104FD000FFF7B8BF0EF1020E2EF0030E5EF8046B61
:104FE000364205D4012A43EB030515F5001F12D8FC
:104FF000012841EB010C1CF5001F0CD80ED14FEA23
:10500000D17C15F5001F0CEB4C0C0CF1020C08BF09
:105010004CEBD37C04E04FF0080C01E04FEAD37C6A
:105020000CEB4C0526FA05F606F00706B6F1040C63
:1050300006D20EEB860CBDE870404CF0010C6047C8
:10504000DFE80CF0090B02024FF000414FF00000C6
:10505000A1F5002170BD19461046012851EB01044D
:1050600018BFD4F5001484BF002001F0004170BDCA
:105070000808A0F500114FEA3101704753EA010C0E
:1050800017D41CF5801F58BFBCF5801F00F10680A7
:105090008B4218BF704708BF8242704707D713F58D
:1050A000801F58BF11F5801F19D48B4270479B4257
:1050B00070471CF5801F08D5BCF5801FF7D59942B5
:1050C00018BF704708BF904270474FF4001C1CEB9C
:1050D000430F38BF1CEB410F01D2994270470FB408
:1050E0000CBC03BCFFF76BBF43004FEAD30C4FEA85
:1050F0003C0C43401FBF40070CF1605113F0FE4FC2
:1051000070471CF0006F03D100200CF00041704785
:105110000CF0004343EA507010B540EACC0000F0B8
:105120000EF800BF000000924FEA0001FFF7A0BF99
:105130004FF000414FF00000A1F5002170470EF143
:10514000020E2EF0030E5EF8044B244204D44FEA04
:105150004102B2F17F4F11D84FEA4003B3F17F4FC4
:105160000CD80ED14FEAD07CB2F17F4F0CEB4C0C37
:105170000CF1020C08BF4CEBD17C04E04FF0080CA2
:1051800001E04FEAD17C0CEB4C0324FA03F404F069
:105190000704B4F1040C06D20EEB840CBDE81040F9
:1051A0004CF0010C6047DFE80CF0070802024FF0FA
:1051B0000040A0F5800010BD0846420018BFD2F1A3
:1051C000807288BF00F0004010BD4FF04070E1EEEB
:1051D000100A70470000000000000000002F0000CF
:1051E00000000700070000147F147F1400242A7FAA
:1051F0002A12006264081323003649552250000029
:105200000503000000001C224100000041221C0098
:105210000014083E08140008083E0808000000A01A
:105220006000000808080808000060600000002016
:1052300010080402003E5149453E0000427F4000F4
:10524000004261514946002141454B31001814127A
:105250007F10002745454539003C4A494930000147
:105260007109050300364949493600064949291E96
:1052700000003636000000005636000000081422F8
:1052800041000014141414140000412214080002F8
:105290000151090600324959513E007C1211127C1D
:1052A000007F49494936003E41414122007F41414A
:1052B000221C007F49494941007F09090901003E3C
:1052C0004149497A007F0808087F0000417F41007A
:1052D000002040413F01007F08142241007F4040F0
:1052E0004040007F020C027F007F0408107F003ED8
:1052F0004141413E007F09090906003E4151215EBE
:10530000007F091929460046494949310001017FBA
:105310000101003F4040403F001F2040201F003F50
:105320004038403F00631408146300070870080702
:1053300000615149454300007F41410000552A5515
:105340002A55000041417F00000402010204004090
:1053500040404040000001020400002054545478B2
:10536000007F4844443800384444442000384444D2
:10537000487F00385454541800087E090102001870
:10538000A4A4A47C007F080404780000447D4000AD
:10539000004080847D00007F102844000000417F91
:1053A0004000007C04180478007C0804047800386D
:1053B0004444443800FC242424180018242418FCF5
:1053C000007C0804040800485454542000043F445E
:1053D0004020003C4040207C001C2040201C003C21
:1053E0004030403C004428102844001CA0A0A07C71
:1053F000004464544C4414141414141400000000A9
:10540000000000000000000000000000000000F8A4
:1054100000000000000000333000000000100C0607
:10542000100C0600000000000000000040C07840A2
:10543000C0784000043F04043F040400007088FC6E
:1054400008300000001820FF211E0000F008F000C6
:10545000E018000000211C031E211E0000F0088837
:10546000700000001E2123241927211010160E00A1
:10547000000000000000000000000000000000E04C
:105480001804020000000007182040000002041861
:10549000E00000000040201807000000404080F0BD
:1054A000804040000202010F01020200000000F0F3
:1054B000000000000101011F0101010000000000C7
:1054C0000000000080B0700000000000000000003C
:1054D00000000000000101010101010100000000C5
:1054E000000000000030300000000000000000005C
:1054F00080601804006018060100000000E0100839
:105500000810E000000F102020100F00001010F80D
:10551000000000000020203F20200000007008084C
:1055200008887000003028242221300000300888CC
:10553000884830000018202020110E000000C020F4
:1055400010F8000000070424243F240000F8088815
:10555000880808000019212020110E0000E01088A2
:1055600088180000000F112020110E0000380808D4
:10557000C83808000000003F0000000000708808E4
:1055800008887000001C222121221C0000E0100865
:105590000810E0000000312222110F00000000C0BE
:1055A000C00000000000003030000000000000805B
:1055B000000000000000806000000000000080404B
:1055C0002010080000010204081020004040404064
:1055D00040404000040404040404040000081020B7
:1055E00040800000002010080402010000704808FC
:1055F0000808F0000000003036010000C030C82864
:10560000E810E0000718272423140B000000C0381E
:10561000E0000000203C23020227382008F8888898
:1056200088700000203F202020110E00C0300808A4
:1056300008083800071820202010080008F808087B
:105640000810E000203F202020100F0008F8888874
:10565000E8081000203F20202320180008F8888840
:10566000E8081000203F200003000000C0300808B8
:105670000838000007182020221E020008F8080041
:105680000008F808203F210101213F20000808F808
:10569000080800000020203F20200000000008082B
:1056A000F8080800C08080807F00000008F888C0EB
:1056B00028180800203F20012638200008F808009C
:1056C00000000000203F20202020300008F8F800D3
:1056D000F8F80800203F003F003F200008F830C0E5
:1056E0000008F808203F200007183F00E0100808D5
:1056F0000810E0000F10202020100F0008F8080804
:105700000808F000203F210101010000E010080816
:105710000810E0000F18242438504F0008F888883B
:1057200088887000203F2000030C3020007088081B
:10573000080838000038202121221C00180808F829
:10574000080818000000203F2000000008F80800AA
:105750000008F808001F202020201F00087888007B
:1057600000C83808000007380E010000F80800F8EB
:105770000008F800033C0700073C03000818688095
:105780008068180820302C03032C30200838C8000B
:10579000C83808000000203F20000000100808085A
:1057A000C83808002038262120201800000000FEFC
:1057B000020202000000007F40404000000C30C0A8
:1057C00000000000000000010638C00000020202D4
:1057D000FE000000004040407F0000000000040286
:1057E00002020400000000000000000000000000B1
:1057F00000000000808080808080808000020204A1
:105800000000000000000000000000000000808098
:10581000808000000019242222223F2008F8008006
:1058200080000000003F112020110E0000000080C9
:1058300080800000000E1120202011000000008058
:105840008088F800000E112020103F20000080808A
:1058500080800000001F222222221300008080F09E
:10586000888888180020203F2020000000008080C9
:1058700080808000006B94949493600008F800800E
:1058800080800000203F210000203F200080989869
:10589000000000000020203F2020000000000080C9
:1058A0009898000000C08080807F000008F8000009
:1058B00080808000203F24022D302000000808F85E
:1058C000000000000020203F202000008080808019
:1058D00080808000203F20003F20003F80800080AB
:1058E00080800000203F210000203F2000008080B9
:1058F00080800000001F202020201F00808000806A
:105900008000000080FFA12020110E000000008018
:1059100080808000000E112020A0FF808080800009
:105920008080800020203F21200001000000808036
:10593000808080000033242424241900008080E02B
:10594000808000000000001F2020000080800000F8
:1059500000808000001F202020103F2080808000D9
:105960000080808000010E300806010080800080E9
:10597000008080800F300C030C300F00008080000E
:10598000808080000020312E0E3120008080800039
:105990000080808080818E701806010000808080E9
:1059A000808080000021302C222130000000000087
:1059B000807C020200000000003F40400000000028
:1059C000FF00000000000000FF0000000002027C59
:1059D000800000000040403F000000000006010180
:1059E0000202040400000000000000001C5B00082C
:1059F00000000020C4000000C4010008E05B0008B3
:105A0000C4000020DC0D0000E001000810010000CF
:105A100043000000F8FFFFFF00404040404040408E
:105A20004040414141414140404040404040404071
:105A30004040404040404040400502020202020215
:105A40000202020202020202022020202020202064
:105A50002020200202020202020290909090909078
:105A60001010101010101010101010101010101036
:105A700010101010020202020202888888888888AA
:105A80000808080808080808080808080808080896
:105A9000080808080202020240000000000000009E
:105AA00000000000000000000000000000000000F6
:105AB00000000000000000000000000000000000E6
:105AC00000000000000000000000000000000000D6
:105AD00000000000000000000000000000000000C6
